:020000040800F2
:1000000000A00020152E0008392C0008412C000803
:10001000492C0008512C0008592C00080000000051
:10002000000000000000000000000000612C00083B
:100030006F2C0008000000007D2C00088B2C0008AD
:10004000652E0008652E0008652E0008652E000844
:10005000652E0008972C0008652E0008A52C0008C6
:10006000652E0008652E0008652E0008652E000824
:10007000652E0008652E0008652E0008652E000814
:10008000B52C0008C92C0008DD2C0008652E0008DE
:10009000652E0008652E0008652E0008F92C000862
:1000A000652E0008652E0008652E0008652E0008E4
:1000B000092D0008652E0008652E00081D2D00087A
:1000C000312D0008652E0008652E0008652E0008F9
:1000D000652E0008652E0008452D0008652E0008D5
:1000E000592D0008652E0008652E0008652E0008B1
:1000F000652E0008652E0008652E0008652E000894
:10010000000000000000000000000000652E000854
:10011000652E0008652E0008652E0008652E000873
:10012000712D0008652E0008652E0008652E000858
:10013000652E0008652E0008000000000000000089
:10014000652E0008652E0008652E000800000000DE
:10015000000000000000000000000000000000009F
:100160000000000000000000652E0008652E000859
:10017000652E0008000000000000000000000000E4
:0801800000000000652E0008DC
:1001900010B5054C237833B9044B13B10448AFF3C1
:1001A00000800123237010BD7000002000000000BB
:1001B000F4C8000808B5034B1BB103490348AFF36B
:1001C000008008BD0000000074000020F4C8000892
:1001D00001F0FF01102A2BDB10F0070F08D010F8F8
:1001E000013B013A8B422DD010F0070F42B3F6D1FC
:1001F000F0B441EA012141EA014122F007047FF015
:1002000000070023F0E80256083C85EA010586EA6B
:10021000010685FA47F5A3FA87F586FA47F6A5FAA7
:1002200087F68EB9EED1F0BC01F0FF0102F00702B3
:1002300032B110F8013B013A83EA010313B1F8D15E
:100240000020704701387047002D06BF354603383F
:10025000073815F0010F07D1013015F4807F02BF78
:10026000013015F4C03F0130F0BC0138704700BFC9
:1002700080B586B000AF3B4600221A605A609A6093
:10028000DA601A615A6101233B6001237B6003231A
:10029000BB603B461946034803F0C8FF00BF183750
:1002A000BD4680BD2C01002080B586B000AF3B4626
:1002B00000221A605A609A60DA601A615A610C234F
:1002C0003B6001237B600323BB603B461946034828
:1002D00003F0ACFF00BF1837BD4680BD2C010020E5
:1002E00080B500AFFFF7C4FF0B4B00225A800B48CC
:1002F00003F042F86421094803F08AF9074803F043
:1003000007FC03469AB2044B5A80044803F04AF9AA
:10031000014B5B88184680BD480500202C01002059
:1003200080B500AFFFF7C0FF0B4B00221A800B48CF
:1003300003F022F86421094803F06AF9074803F042
:10034000E7FB03469AB2044B1A80044803F02AF9EB
:10035000014B1B88184680BD480500202C01002059
:1003600080B582B000AF0023FB7170E0FB79454A95
:10037000128891B2444A22F81310FB79434A32F8AA
:100380001320434B1B889A4214D3FB793E4A32F820
:100390001330092B0ED9FB793B4A32F81320FB7935
:1003A0000A3A91B2384A22F8131001220121394841
:1003B00005F0D8F9FB79354A32F8133040F6D762A8
:1003C000934230D90021344808F0ACFD0421324872
:1003D00008F0A8FD0021314808F0A4FD00213048B4
:1003E00008F0A0FD00212C480AF0D4F904212A4885
:1003F0000AF0D0F9002129480AF0CCF90021284858
:100400000AF0C8F9204B0A221A801F4B0A225A8090
:100410001D4B0A229A801C4B0A22DA8001220121FC
:100420001C4805F09FF9FB79174A32F81330092B65
:100430000AD9FB79154A32F813300A2B04D8002266
:100440000121144805F08EF9FB790133FB71FB792A
:10045000032B8BD90C4B1B881A460B4B5B88134420
:10046000094A92881344084AD2881344002B00DAC0
:1004700003339B109AB20B4B1A8000BF0837BD465E
:1004800080BD00BF5C050020000000204805002062
:100490000800002000140048340200201803002047
:1004A000640300205A05002080B586B002AF0346E1
:1004B0000A46FB711346BB714FF0FF3301224E21F8
:1004C000204805F01DFB0346FB73FB7B002B00D08F
:1004D000F2E700BFFB7923F00F03BB73FB791B012D
:1004E0007B73BA7BBB791343DBB243F00C03DBB203
:1004F0003B72BA7BBB791343DBB243F00803DBB238
:100500007B727A7BBB791343DBB243F00C03DBB223
:10051000BB727A7BBB791343DBB243F00803DBB2D7
:10052000FB7207F108024FF0FF33009304234E21C2
:10053000044805F0F1F9052002F0FCFC00BF10377B
:10054000BD4680BDC001002080B586B002AF034625
:100550000A46FB711346BB71FB791B01DBB2FB73CF
:10056000FA7BBB791343DBB2FB73164B1B78DB00C2
:100570005AB2FB7B5BB213435BB2DBB2FB73FB7B18
:1005800043F00403DBB2FB7307F10F026423009313
:1005900001234E210C4805F0BFF9012002F0CAFCEE
:1005A000FB7B23F00403DBB2FB7307F10F02642330
:1005B000009301234E21044805F0AEF900BF103727
:1005C000BD4680BD0A000020C001002080B584B077
:1005D00000AF0346FB71FB791B09FB73FB7903F04A
:1005E0000F03BB73FB7B00211846FFF7ADFFBB7BFE
:1005F00000211846FFF7A8FFFB79012B02D0FB79F9
:10060000022B02D1022002F095FC00BF1037BD463C
:1006100080BD80B584B000AF0346FB71FB791B0938
:10062000FB73FB7903F00F03BB73FB7B01211846BF
:10063000FFF78AFFBB7B01211846FFF785FF00BF4C
:100640001037BD4680BD80B500AF322002F072FC8D
:1006500000210320FFF778FF052002F06BFC00214A
:100660000320FFF771FF012002F064FC002103204A
:10067000FFF76AFF012002F05DFC00210220FFF776
:1006800063FF2820FFF7A2FF0C20FFF79FFF062043
:10069000FFF79CFF0120FFF799FF022002F04AFCC0
:1006A00000BF80BD80B582B000AF786006E07B6897
:1006B0005A1C7A601B781846FFF7ABFF7B681B78E3
:1006C000002BF4D100BF00BF0837BD4680BD00003D
:1006D00080B584B000AF03460A46FB711346BB7178
:1006E000FB79013B032B17D801A252F823F000BF7E
:1006F00001070008070700080D0700081307000896
:100700008023FB730AE0C023FB7307E09423FB7391
:1007100004E0D423FB7301E08023FB73FA7BBB79F5
:100720001344FB73FB7B63F07F03DBB21846FFF7D8
:100730004DFF00BF1037BD4680BD00BF80B500AF84
:100740000120FFF743FF022002F0F4FB00BF80BD51
:1007500080B483B000AF7860174B1B68174A52F81B
:1007600023307A68D21A164B1B681344144A13605C
:10077000114B1B6811497A6841F823200E4B1B6806
:10078000591C104B83FB0123DA10CB17D21A1346E6
:100790009B0013449B00CA1A074B1A60084B1B6846
:1007A000084A82FB0312D210DB17D31A18460C3703
:1007B000BD465DF8047B7047E4060020E806002093
:1007C000380700206766666680B584B000AF786041
:1007D0000B467B807B681B68384A93426AD1384B52
:1007E0001A78384B1B789A4257D1354B5B78FB739C
:1007F000FB7B013B0F2B4FD801A252F823F000BF27
:10080000990800089908000899080008410800089C
:10081000990800084B080008990800089908000882
:100820009908000899080008990800089908000824
:100830009908000899080008990800085D08000850
:100840002149224801F0FCFC27E021491F4801F022
:1008500075FD1F4B5A881F4B1A801EE01C491B4810
:1008600001F06CFD1A4B5A881A4B1A80184B9A8863
:10087000194B1A80164BDB881B0A9BB2DAB2174B56
:100880001A70134BDB88DAB2154B1A70104B1B89A8
:10089000DAB2144B1A7000E000BF102208490B486E
:1008A0000BF033FB104B1B681A680F4B1B6822F0D0
:1008B00004021A6000BF1037BD4680BD00440040EE
:1008C0007C050020100000208C0600203804002049
:1008D000AC0600205C050020080000207705002001
:1008E0007605002078050020C004002080B400AF09
:1008F0001A4B1B68194A43F420231360174B5B689B
:10090000164A43F440735360144BDB68134A43F4B4
:100910002023D360124B5B69114A43F48023536157
:100920000F4BDB690E4A43F40013D3610B4B5B6A38
:100930000A4A43F0440353620A4B1B68094A43F4D2
:1009400000431360074B1B68064A23F400431360FF
:1009500000BFBD465DF8047B704700BF000400483F
:10096000001002400054004080B586B002AF02F093
:100970007BFA00F05DFB01F04DF901F011F900F098
:1009800033FC00F0D1FD00F089FE01F0A9F801F080
:10099000D7F800F053FF00F02DFD00F06BFD00F0E4
:1009A000FBFF00F0B1FB00F0B5FC00F0F9FE012206
:1009B0000121AA4804F0D6FE01224FF480614FF0D5
:1009C000904004F0CFFEA64B1A88A64B5A63A44B66
:1009D0005A88A44B9A63A24B9A88A34B5A63A04BA4
:1009E000DA88A24B5A630021A14808F09BF9042140
:1009F0009F4808F097F900219E4808F093F90021DC
:100A00009D4808F08FF900219C4808F083FB0421E1
:100A10009A4808F07FFB01224FF40061984804F0E7
:100A2000A1FE01224FF48061954804F09BFE012253
:100A30004FF48051924804F095FE01224FF400518A
:100A40008F4804F08FFE05218E4803F055FB0421EA
:100A50008D4803F051FB02218C4803F04DFB8C4B79
:100A600001221A70642002F065FAFFF73FFFFFF7DA
:100A7000EAFDFFF763FE874BFB6000213020FFF7A4
:100A800013FD00210220FFF70FFD00210C20FFF7CE
:100A90000BFD00210120FFF707FD7F4B1B881A4645
:100AA0003B467E4918460BF085FA00210120FFF7EE
:100AB0000FFE3B461846FFF7F5FD052278497148C1
:100AC00002F0A8FE1022774977480BF01EFA774B08
:100AD0001B681A68754B1B6822F004021A6000221A
:100AE0004FF480614FF0904004F03CFE0022012161
:100AF0005A4804F037FE00224FF480614FF09040D6
:100B000004F030FE624B1B78DBB2012BFAD15D485A
:100B100002F09CFF624B1A89654B9A805A4802F09A
:100B20002BFC6421584802F073FD614B0022DA80EF
:100B3000554802F0EDFF03469AB25D4BDA80524809
:100B400002F030FDFFF7CCFBFFF7EAFB584B1A88A9
:100B5000584B1A80564B5A88564B5A80544B9A8899
:100B6000544B9A80524BDA88524BDA803C4B1A88AD
:100B7000504B1A813A4B5A884E4B5A81384B9A88BF
:100B80004C4B9A81364BDA884A4BDA81424B1A88B1
:100B9000484B1A82484B1A88464B5A82474B1A8850
:100BA000444B9A82464B1B781A46424BDA82454B9D
:100BB0001A88404B1A83444B1A883E4B5A833C4B4D
:100BC0001B881A463A4B5B881344394A928813446F
:100BD000374AD2881344002B00DA03339B109AB2B1
:100BE0003A4B1A80324B1A88314B5B8813449AB2C5
:100BF0002F4B9B8813449AB22D4BDB8813449AB237
:100C0000334B1A80334B1B780133DAB2314B1A70F5
:100C1000274B1B881846FFF79BFD0346DAB22E4B85
:100C20001A70234B5B881846FFF792FD0346DAB231
:100C3000294B5A701E4B9B881846FFF789FD0346C7
:100C4000DAB2254B9A701A4BDB881846FFF780FD05
:100C50000346DAB2204BDA7040E000BF00140048CF
:100C600000000020002C0140003401400040014001
:100C700034020020180300206403002080020020BA
:100C800000040048DC0000208C0000202C01002023
:100C90005F0500200CC900086605002010C9000887
:100CA000500500207C05002038040020C0040020EE
:100CB000480500208C060020680500200800002060
:100CC000100000200E0000200C0000207205002003
:100CD000740500206A0500206C050020B44B1B78C9
:100CE000012B04D1FFF72AFDB14B00221A70B14B42
:100CF0001B78002B4AD1B04B1B78142B46D1AF4B3D
:100D00001B881A463B46AE4918460BF053F90021A2
:100D10000120FFF7DDFC3B461846FFF7C3FCA94B5B
:100D20001B881946A74B1B88A74AA2FB03231B0954
:100D30009BB238460A46A5490BF03CF90021022037
:100D4000FFF7C6FC3B461846FFF7ACFCA04B1B88E0
:100D50001A463B469F4918460BF02CF90021032008
:100D6000FFF7B6FC3B461846FFF79CFC9A4B1B88E6
:100D70001A463B46994918460BF01CF900210420FD
:100D8000FFF7A6FC3B461846FFF78CFC894B1B7807
:100D9000022B49D1884B1B78162B45D10022904954
:100DA000904807F018FD00228F498E4807F0F5FDA6
:100DB0008E4B1B781A468E4B1B7819468D4B1B7831
:100DC000384600930B468C490BF0F4F800210120C3
:100DD000FFF77EFC3B461846FFF764FC804B1B7810
:100DE0001A467F4B5B7819467D4B9B7838460093BB
:100DF0000B4682490BF0DEF800210220FFF768FC69
:100E00003B461846FFF74EFC7D4B1B781A463B4687
:100E10007C4918460BF0CEF800210320FFF758FC60
:100E20003B461846FFF73EFC624B1B78012B40F017
:100E3000A380614B1B78122B57D1734B1B88624ADE
:100E4000A2FB03231B099BB21A466F4B1B88384633
:100E50006E490BF0AFF800210120FFF739FC3B464B
:100E60001846FFF71FFC684B5B88574AA2FB032319
:100E70001B099BB21A46644B5B88384663490BF0EA
:100E800099F800210220FFF723FC3B461846FFF7A4
:100E900009FC5D4B9B884C4AA2FB03231B099BB2B8
:100EA0001A46594B9B88384658490BF083F8002165
:100EB0000320FFF70DFC3B461846FFF7F3FB524BB0
:100EC000DB88414AA2FB03231B099BB21A464E4B07
:100ED000DB8838464D490BF06DF800210420FFF700
:100EE000F7FB3B461846FFF7DDFB334B1B78B42B73
:100EF00042D1474B1B881A463B46464918460BF0E1
:100F000059F80D210120FFF7E3FB3B461846FFF798
:100F1000C9FB3F4B5B881A463B463E4918460BF0DF
:100F200049F80D210220FFF7D3FB3B461846FFF797
:100F3000B9FB374B9B881A463B46364918460BF09F
:100F400039F80D210320FFF7C3FB3B461846FFF796
:100F5000A9FB2F4BDB881A463B462E4918460BF05F
:100F600029F80D210420FFF7B3FB3B461846FFF795
:100F700099FB114B00221A70FFF7F2F9224B1A88E5
:100F8000254B5A63204B5A88234B9A631E4B9A88F1
:100F9000224B5A631C4BDA88214B5A63214B0022A7
:100FA0001A7005222049214802F034FCAAE500BF4E
:100FB00071050020700500206A05002066050020EC
:100FC00010C900085A050020CDCCCCCC24C900089B
:100FD000720500203CC90008680500204CC90008C3
:100FE000CC06002014020020E00600207705002037
:100FF000760500207805002058C9000874C900084B
:101000006C05002088C900080000002098C900086D
:1010100048050020A8C90008002C01400034014008
:10102000004001405F05002050050020DC0000204A
:1010300080B59EB000AF07F150032822002118466A
:101040000AF0D8FF07F13C0300221A605A609A6048
:10105000DA601A613B463C22002118460AF0CAFFBA
:101060000A233B6501233B6610237B660123BB6695
:101070000223FB6600233B674FF460137B6707F195
:101080005003184605F066FE0346002B01D001F020
:101090004FF80F23FB6302233B6400237B644FF470
:1010A0008063BB640023FB6407F13C030221184604
:1010B00006F08EFE0346002B01D001F039F8114BEB
:1010C0003B600023BB600023FB604FF480737B62B6
:1010D0004FF40053BB620023FB614FF400737B604D
:1010E00000233B6300237B633B46184607F0A6F8CA
:1010F0000346002B01D001F01BF800BF7837BD4636
:1011000080BD00BFA331010080B58AB000AF07F1F8
:101110001C0300221A605A609A603B1D00221A606C
:101120005A609A60DA601A615A612E4B4FF0A04201
:101130001A602C4B00225A602A4B00229A60294BDD
:1011400000221A61274B00225A76264B002283F890
:101150002020244B0022DA62224B01229A62214B8A
:101160000022DA601F4B0122DA611E4B002283F855
:1011700030201C4B04225A611A4B00221A76194B5C
:1011800000225A63174801F017FF0346002B01D0D5
:1011900000F0CEFF0023FB6107F11C031946114844
:1011A00003F02EFB0346002B01D000F0C1FF042307
:1011B0007B600123BB6000233B610223FB600023B3
:1011C0007B610023BB613B1D1946064803F02EF8E6
:1011D0000346002B01D000F0ABFF00BF2837BD460F
:1011E00080BD00BF8C00002080B586B000AF3B46BC
:1011F00000221A605A609A60DA601A615A61434BA1
:10120000434A1A60414B00225A60404B00229A60C8
:101210003E4B01221A613D4B01225A763B4B002284
:1012200083F82020394B0022DA62384B01229A627F
:10123000364B0022DA60354B0522DA61334B00224F
:1012400083F83020314B04225A61304B00221A7649
:101250002E4B00225A632D4801F0AEFE0346002BB0
:1012600001D000F065FF01233B6001237B60002378
:10127000FB600223BB6000233B6100237B613B4694
:101280001946224802F0D2FF0346002B01D000F09D
:101290004FFF02233B6002237B603B4619461B48FD
:1012A00002F0C4FF0346002B01D000F041FF0323EE
:1012B0003B6003237B603B461946144802F0B6FFAF
:1012C0000346002B01D000F033FF04233B600423CE
:1012D0007B603B4619460D4802F0A8FF0346002BF1
:1012E00001D000F025FF0C233B6005237B603B46CB
:1012F0001946064802F09AFF0346002B01D000F081
:1013000017FF00BF1837BD4680BD00BFDC000020BE
:101310000001005080B58AB000AF07F11C03002225
:101320001A605A609A603B1D00221A605A609A60E7
:10133000DA601A615A612D4B2D4A1A602B4B00223C
:101340005A602A4B00229A60284B00221A61274BD0
:1013500000225A76254B002283F82020234B0022BE
:10136000DA62224B01229A62204B0022DA601F4B84
:101370000122DA611D4B002283F830201B4B04222E
:101380005A611A4B00221A76184B00225A631748EA
:1013900001F012FE0346002B01D000F0C9FE00232D
:1013A000FB6107F11C031946104803F029FA0346B4
:1013B000002B01D000F0BCFE01237B600123BB6049
:1013C00000233B610223FB6000237B610023BB61A0
:1013D0003B1D1946054802F029FF0346002B01D0AA
:1013E00000F0A6FE00BF2837BD4680BD2C010020BE
:1013F0000004005080B500AF1B4B1C4A1A601A4B0A
:101400001B4A5A60184B24229A60174B0122DA605B
:10141000154B00221A61144B00225A61124B002214
:101420009A61114B0022DA610F4B00221A620E48BA
:1014300004F0E2F90346002B01D000F079FE002110
:10144000094805F0EFFB0346002B01D000F070FEC9
:101450000021054805F031FC0346002B01D000F0C7
:1014600067FE00BF80BD00BFC001002000540040E7
:101470000E09002080B586B000AF3B1D00221A6027
:101480005A609A60DA601A6100233B60244B254A57
:101490001A60234B00225A60214B7F229A60204B16
:1014A00040F23712DA601E4B00221A611C4B0022F8
:1014B0005A611B4B00229A61194807F06FF80346E6
:1014C000002B01D000F034FE09233B7100237B7117
:1014D0000023BB7100233B6100237B613B1D012284
:1014E00019460F4807F0DDF80346002B01D000F045
:1014F0001FFE01233B7006237B700123BB7000237A
:10150000FB703B4601221946054807F0C2F9034625
:10151000002B01D000F00CFE00BF1837BD4680BD87
:10152000140200200028004080B59AB000AF07F1F7
:10153000580300221A605A609A60DA6007F14C037F
:1015400000221A605A609A6007F1300300221A6084
:101550005A609A60DA601A615A619A613B1D2C22C6
:10156000002118460AF046FD4A4B4B4A1A60494B87
:1015700000225A60474B00229A60464B4FF4FA62B1
:10158000DA60444B00221A61424B00225A61414BFF
:1015900080229A613F4807F00DFB0346002B01D0E3
:1015A00000F0C6FD4FF48053BB6507F158031946A0
:1015B000384808F0C1F90346002B01D000F0B8FD0F
:1015C000344807F04EFB0346002B01D000F0B0FD7D
:1015D0000023FB6400233B6500237B6507F14C037C
:1015E00019462C4809F034F90346002B01D000F0CD
:1015F0009FFD60233B634FF47A737B630023BB63DF
:101600000023FB6304233B6400237B640023BB644F
:1016100007F13003002219461E4808F079F8034606
:10162000002B01D000F084FD07F13003042219469D
:10163000184808F06DF80346002B01D000F078FD43
:1016400000237B600023BB600023FB6064233B61BD
:1016500000237B614FF40053BB610023FB61002337
:101660003B624FF000737B620023BB620023FB628E
:101670003B1D1946074809F06BF90346002B01D0C2
:1016800000F056FD034801F037F900BF6837BD464A
:1016900080BD00BF34020020002C014080B58CB01A
:1016A00000AF07F1200300221A605A609A60DA60E6
:1016B00007F1140300221A605A609A603B1D002251
:1016C0001A605A609A60DA60334B4FF080421A60B9
:1016D000314B00225A60304B00229A602E4B2F4A29
:1016E000DA602D4B00221A612B4B00229A612A48A6
:1016F00007F060FA0346002B01D000F019FD4FF40B
:1017000080533B6207F120031946234808F014F97F
:101710000346002B01D000F00BFD1F4807F098FC9A
:101720000346002B01D000F003FD00237B61002362
:10173000FB6107F114031946174809F089F80346BD
:10174000002B01D000F0F4FC00237B600123BB6080
:101750000023FB600C233B613B1D002219460E4811
:1017600007F039FF0346002B01D000F0E1FC022313
:101770007B600223BB6000233B613B1D04221946B2
:10178000054807F028FF0346002B01D000F0D0FCED
:1017900000BF3037BD4680BD800200200090D003DE
:1017A00080B588B000AF07F1100300221A605A60BC
:1017B0009A60DA603B1D00221A605A609A601D4BE5
:1017C0001D4A1A601B4B00225A601A4B00229A6075
:1017D000184B4FF6FF72DA60164B00221A61154B58
:1017E00080229A61134807F0E5F90346002B01D0E7
:1017F00000F09EFC4FF480533B6107F11003194643
:101800000C4808F099F80346002B01D000F090FC3A
:1018100000237B600023FB603B1D1946054809F04F
:1018200017F80346002B01D000F082FC00BF2037E0
:10183000BD4680BDCC0200200004004080B59AB0B7
:1018400000AF07F1580300221A605A609A60DA600C
:1018500007F14C0300221A605A609A6007F13003C6
:1018600000221A605A609A60DA601A615A619A61BD
:101870003B1D2C22002118460AF0BCFB444B454A74
:101880001A60434B00225A60414B00229A60404B41
:101890004FF4FA62DA603E4B00221A613C4B0022A0
:1018A0005A613B4B80229A61394807F083F903461D
:1018B000002B01D000F03CFC4FF48053BB6507F1D6
:1018C00058031946324808F037F80346002B01D078
:1018D00000F02EFC2E4807F0C4F90346002B01D07F
:1018E00000F026FC0023FB6400233B6500237B659E
:1018F00007F14C031946264808F0AAFF0346002BBF
:1019000001D000F015FC60233B634FF47A737B63D6
:101910000023BB630023FB6300233B6400237B6441
:101920000023BB6407F1300300221946184807F072
:10193000EFFE0346002B01D000F0FAFB00237B6092
:101940000023BB600023FB6064233B6100237B61B9
:101950004FF40053BB610023FB6100233B624FF057
:1019600000737B620023BB620023FB623B1D1946B0
:10197000074808F0EDFF0346002B01D000F0D8FB2C
:10198000034800F0B9FF00BF6837BD4680BD00BF07
:10199000180300200034014080B59AB000AF07F171
:1019A000580300221A605A609A60DA6007F14C030B
:1019B00000221A605A609A6007F1300300221A6010
:1019C0005A609A60DA601A615A619A613B1D2C2252
:1019D000002118460AF00EFB3F4B404A1A603E4B6E
:1019E00000225A603C4B00229A603B4B4FF4FA6253
:1019F000DA60394B00221A61374B00225A61364BAC
:101A000080229A61344807F0D5F80346002B01D0B4
:101A100000F08EFB4FF48053BB6507F15803194665
:101A20002D4807F089FF0346002B01D000F080FB12
:101A3000294807F016F90346002B01D000F078FB87
:101A40000023FB6400237B6507F14C031946224801
:101A500008F0FEFE0346002B01D000F069FB602376
:101A60003B634FF47A737B630023BB630023FB6308
:101A700000233B6400237B640023BB6407F1300335
:101A800000221946144807F043FE0346002B01D0FC
:101A900000F04EFB00237B600023BB600023FB6053
:101AA00064233B6100237B614FF40053BB6100233F
:101AB000FB610023FB623B1D1946074808F048FF05
:101AC0000346002B01D000F033FB034800F014FF65
:101AD00000BF6837BD4680BD640300200040014060
:101AE00080B500AF144B154A1A60134B4FF41652D1
:101AF0005A60114B00229A600F4B0022DA600E4BA5
:101B000000221A610C4B0C225A610B4B00229A6185
:101B1000094B0022DA61084B00221A62064B0022B0
:101B20005A62054808F0D5FF0346002B01D000F0AB
:101B3000FFFA00BF80BD00BFB003002000380140A5
:101B400080B500AF144B154A1A60134B4FF4613245
:101B50005A60114B00229A600F4B0022DA600E4B44
:101B600000221A610C4B0C225A610B4B00229A6125
:101B7000094B0022DA61084B00221A62064B002250
:101B80005A62054808F0A5FF0346002B01D000F07B
:101B9000CFFA00BF80BD00BF3804002000440040E1
:101BA00080B582B000AF1A4B5B69194A43F002035B
:101BB0005361174B5B6903F002037B607B68144B36
:101BC0005B69134A43F001035361114B5B6903F0F6
:101BD00001033B603B6800220021102003F0C3F9A1
:101BE000102003F0DCF900220021112003F0BBF9E2
:101BF000112003F0D4F900220021382003F0B3F9BA
:101C0000382003F0CCF900BF0837BD4680BD00BFC7
:101C10000010024080B58AB000AF07F11403002223
:101C20001A605A609A60DA601A61644B5B69634AB1
:101C300043F400235361614B5B6903F400233B6170
:101C40003B695E4B5B695D4A43F4800353615B4BC8
:101C50005B6903F48003FB60FB68584B5B69574A80
:101C600043F400335361554B5B6903F40033BB60AD
:101C7000BB68524B5B69514A43F4802353614F4B1D
:101C80005B6903F480237B607B6800224FF4004192
:101C90004B4803F067FD002203214A4803F062FD30
:101CA00000224FF47051484803F05CFD00224FF4CD
:101CB00080614FF0904003F055FD4FF4C0437B61CD
:101CC0004FF44413BB610023FB6107F11403194671
:101CD0003B4803F0B5FB4FF400437B610123BB613C
:101CE0000023FB6100233B6207F1140319463448CB
:101CF00003F0A6FB03237B610123BB610023FB618F
:101D000000233B6207F1140319462E4803F098FBA9
:101D100002237B614FF44413BB610023FB6107F195
:101D2000140319464FF0904003F08AFB4FF47053B0
:101D30007B610123BB610023FB6100233B6207F150
:101D400014031946204803F07BFB4FF480637B614A
:101D50000123BB610023FB6100233B6207F11403F5
:101D600019464FF0904003F06BFB20237B614FF44A
:101D70004413BB610023FB6107F1140319461248A9
:101D800003F05EFB00220021072003F0ECF807209F
:101D900003F005F900220121172003F0E4F81720D1
:101DA00003F0FDF800220321282003F0DCF82820AE
:101DB00003F0F5F800BF2837BD4680BD0010024093
:101DC00000080048001400480004004880B582B0B4
:101DD00000AF78607B681B68B3F1804F73D17B687C
:101DE0001B7F012B46D10021394807F09BF80421C5
:101DF000374807F097F80021364807F093F800219C
:101E0000354807F08FF8354B00221A604FF08043B9
:101E100000225A620021324807F058FE03461A4653
:101E20002E4B1A6004212E4807F050FE03469AB24A
:101E30002C4B1A80294B1B682B4A92FBF3F39AB266
:101E40002A4B1A80254B1B68294A92FBF3F39AB25E
:101E5000284B1A8000211E4808F0E8FB04211C488A
:101E600008F0E4FB00211B4808F0E0FB00211A48C1
:101E700008F0DCFB7B681B7F022B24D14FF4004170
:101E80001D4803F087FC0021114808F083FC042161
:101E90000F4808F07FFC00210E4808F07BFC002171
:101EA0000D4808F077FC0021094806F03BFF0421AB
:101EB000074806F037FF0021064806F033FF0021EF
:101EC000054806F02FFF00BF0837BD4680BD00BFA4
:101ED0003402002018030020640300206005002065
:101EE000800200206405002000389C1C660500204C
:101EF0000048E801680500200008004880B582B06D
:101F000000AF0346FB80FB88B3F5005F49D14FF477
:101F10000041654803F03EFC4FF40051624803F075
:101F200009FC0346002B3CD1604B1B885F4B1B8890
:101F30009BB2132B1CD85E4B1B78002B18D10022B0
:101F40005C495D4806F047FC00225C495A4806F0AF
:101F500024FD584B1A785A4B1A70564B5A78594BE5
:101F60001A70544B9A78584B1A70514B01221A70C0
:101F70004E4B1B889BB20A339AB24C4B1A804B4B88
:101F80001B889BB240F2CE72934203D9474B4FF469
:101F9000FA621A804D4B04221A704D4B4FF40052D6
:101FA0005A61FB88B3F5804F49D14FF480413E48D8
:101FB00003F0C0FB0346012B04D14FF400413A4823
:101FC00003F0E8FB4FF48041374803F0B3FB0346CE
:101FD000002B34D1354B1B889BB2002B0FD1344BD7
:101FE0001B78012B0BD1324B00221A70344B00228C
:101FF0001A70344B00221A70334B00221A702B4B8C
:102000001B889BB20A3B9AB2284B1A80274B1B882D
:102010009BB240F63302934202D9244B00221A802D
:10202000224B1B889BB2012B02D8204B00221A8026
:10203000264B04221A70264B4FF480425A61FB88CB
:10204000202B2DD12021234803F074FB0346012BC4
:1020500007D100220221204803F084FB1C4B2022E0
:102060005A6120211B4803F065FB0346002B17D162
:1020700001220221184803F075FB184B01221A7047
:10208000174B1B780133DAB2154B1A70144B1B78BF
:10209000022B02D9124B00221A700D4B20225A61DA
:1020A00000BF0837BD4680BD000800485C05002021
:1020B00079050020CC06002014020020E006002054
:1020C0007705002076050020780500205E050020B9
:1020D000000401400004004800140048710500207D
:1020E0007005002080B582B000AF786000224FF408
:1020F00080614FF0904003F035FB00BF0837BD46CC
:1021000080BD000080B483B000AF78607B681B683E
:10211000054A934202D1054B01221A7000BF0C37C9
:10212000BD465DF8047B7047000100505F0500204C
:1021300080B400AF72B600BF00BFFDE780B487B0C7
:1021400000AF78600B46FB704FF6FF737B61002396
:10215000FB7423E0FB7C7A6813441B781A467B6986
:1021600053407B610123BB7412E07B6903F00103E0
:10217000BB607B695B087B61BB68002B05D07B691A
:1021800083F4204383F001037B61BB7C0133BB7488
:10219000BB7C082BE9D9FB7C0133FB74FA7CFB7810
:1021A0009A42D7D37B691B0AFB607B691B02FA68E2
:1021B00013437B617B699BB27B617B699BB2184651
:1021C0001C37BD465DF8047B7047000080B586B0C3
:1021D00000AFF860B9601346FB71FB791946B86827
:1021E000FFF7ACFF0346FB82FB790133BA68134467
:1021F000FA8AD2B21A70FB8A1B0A99B2FB79BA68C2
:102200001344CAB21A7001224FF480614FF090401B
:1022100003F0A8FAFB799BB202339BB21A46B96865
:10222000F86808F0A5FC00220221044803F09AFA9D
:1022300000BF18461837BD4680BD00BF00140048D7
:1022400080B586B000AF78603960394B9B781B024F
:102250001AB2374BDB781BB213431BB2FB82344BF1
:102260001B791B021AB2324B5B791BB213431BB2B0
:102270007B81FB8AA3F5EA43313BFB82FA8A7B89A7
:1022800013449BB2013B3B817B897D2B05D9032104
:10229000786800F0D3F8002345E03B891E2B05D970
:1022A0000221786800F0CAF800233CE0214B1A783C
:1022B000214B1A701E4B5A781F4B5A707B89DBB228
:1022C0005B00DAB21C4B9A7003233B610023FB6076
:1022D0001DE0FB8A5B003A6813441B881B0A99B215
:1022E0003B695A1C3A61C9B2134AD154FB8A5B005C
:1022F0003A68134419883B695A1C3A61C9B20E4ABC
:10230000D154FB8A0133FB82FB680133FB607B897C
:10231000FA689A42DDDB3B69DBB21A460649786807
:10232000FFF754FF012318461837BD4680BD00BF94
:102330007C050020100000208C05002080B586B0B0
:1023400000AF786039603A4B9B781B021AB2384B69
:10235000DB781BB213431BB2FB82354B1B791B028C
:102360001AB2334B5B791BB213431BB27B817B895F
:10237000002B02D07B897B2B05D90321786800F0E4
:102380005DF800234FE0FA8A7B8913449BB2013B3E
:102390003B813B891E2B05D90221786800F04EF85D
:1023A000002340E007233B610023FB6019E03B6909
:1023B0005A1C3A611E4AD35C1B021AB23B69591C73
:1023C00039611B49CB5C1BB2134319B2FB8A5A1CFF
:1023D000FA825B003A6813448AB21A80FB680133C0
:1023E000FB607B89FA689A42E1DB124B1A78124B48
:1023F0001A700F4B5A78104B5A700D4B9A780E4B3F
:102400009A700B4BDA780C4BDA70094B1A790A4B3D
:102410001A71074B5A79084B5A7106220649786897
:10242000FFF7D4FE012318461837BD4680BD00BF14
:102430007C050020100000208C05002080B582B0B3
:1024400000AF78600B46FB700B4B1A780B4B1A7081
:10245000094B5B7863F07F03DAB2084B5A70074A86
:10246000FB789370032205497868FFF7AFFE0346B7
:1024700018460837BD4680BD7C0500208C0500202D
:1024800080B582B000AF124B9B69114A43F0010343
:1024900093610F4B9B6903F001037B607B680C4BDE
:1024A000DB690B4A43F08053D361094BDB6903F0CE
:1024B00080533B603B6800220021052002F053FD61
:1024C000052002F06CFD00BF0837BD4680BD00BF8F
:1024D0000010024080B58EB000AF786007F1240391
:1024E00000221A605A609A60DA601A617B681B6881
:1024F000B3F1A04F36D1704B1B6801336E4A1360A5
:102500006D4B1B68012B0BD16C4B5B696B4A43F025
:1025100080535361694B5B6903F080533B623B6AB4
:10252000664B5B69654A43F400335361634B5B69F7
:1025300003F40033FB61FB6908237B620323BB6266
:102540000023FB6207F1240319464FF0904002F08C
:1025500077FF00220221122002F005FD122002F076
:102560001EFDA4E07B681B68554A934276D1524B0E
:102570001B680133504A13604F4B1B68012B0BD172
:102580004E4B5B694D4A43F0805353614B4B5B6943
:1025900003F08053BB61BB69484B5B69474A43F416
:1025A00000335361454B5B6903F400337B617B6906
:1025B000424B5B69414A43F4802353613F4B5B6963
:1025C00003F480233B613B69F0237B620323BB62FE
:1025D0000023FB6207F1240319464FF0904002F0FC
:1025E0002FFF04237B620323BB620023FB6207F1FE
:1025F00024031946334802F023FF334B334A1A6051
:10260000314B00225A60304B00229A602E4B8022C0
:10261000DA602D4B4FF480721A612B4B4FF48062BD
:102620005A61294B00229A61274B0022DA61264821
:1026300002F0CFFC0346002B01D0FFF779FD7B6849
:10264000214A9A63204A7B685362002202211220A9
:1026500002F089FC122002F0A2FC28E07B681B68D3
:102660001B4A934223D1154B5B69144A43F0005334
:102670005361124B5B6903F00053FB60FB680F4B27
:102680005B690E4A43F4802353610C4B5B6903F48E
:102690008023BB60BB6803237B620323BB620023F0
:1026A000FB6207F124031946064802F0C9FE00BF89
:1026B0003837BD4680BD00BF3C07002000100240F7
:1026C00000010050000400487C0100200804024082
:1026D0000004005080B58AB000AF786007F11403A1
:1026E00000221A605A609A60DA601A617B681B687F
:1026F0001F4A934238D11F4B5B691E4A43F4802323
:1027000053611C4B5B6903F480233B613B694FF4CD
:1027100040737B611223BB610123FB6103233B6296
:1027200004237B6207F114031946134802F088FE64
:10273000104BDB690F4A43F40013D3610D4BDB6987
:1027400003F40013FB60FB68002200211F2002F04D
:102750000AFC1F2002F023FC00220021202002F0AE
:1027600002FC202002F01BFC00BF2837BD4680BDC4
:1027700000540040001002400004004880B485B0BE
:1027800000AF78607B681B680D4A934211D14FF40B
:102790000043FB60FB6893FAA3F3BB60BB68B3FA2A
:1027A00083F3DBB21A46074B13449B001A460123FE
:1027B000136000BF1437BD465DF8047B704700BF4F
:1027C000002800400081901080B58EB000AF786086
:1027D00007F1240300221A605A609A60DA601A61D5
:1027E0007B681B683F4A93420CD13F4B9B693E4A32
:1027F00043F4006393613C4B9B6903F400633B62C9
:102800003B6A6BE07B681B68B3F1804F31D1364B7C
:10281000DB69354A43F00103D361334BDB6903F0D5
:102820000103FB61FB69304B5B692F4A43F40033C2
:1028300053612D4B5B6903F40033BB61BB6901231A
:102840007B620223BB620023FB6200233B63012304
:102850007B6307F1240319464FF0904002F0F0FD2E
:10286000002200211C2002F07EFB1C2002F097FBBE
:1028700034E07B681B681D4A93420CD11A4BDB691C
:10288000194A43F00203D361174BDB6903F00203DB
:102890007B617B6922E07B681B68154A93420CD1FF
:1028A000114B9B69104A43F4005393610E4B9B6993
:1028B00003F400533B613B6910E07B681B680D4AE1
:1028C00093420BD1084B9B69074A43F480339361D1
:1028D000054B9B6903F48033FB60FB6800BF38370E
:1028E000BD4680BD002C01400010024000040040A5
:1028F000003401400040014080B58CB000AF7860EA
:1029000007F11C0300221A605A609A60DA601A61AB
:102910007B681B684C4A93421ED14C4B5B694B4A07
:1029200043F400335361494B5B6903F40033BB61EB
:10293000BB694FF4D853FB6102233B6200237B62E7
:102940000023BB620623FB6207F11C0319464FF00C
:10295000904002F075FD72E07B681B683C4A934230
:102960003AD13A4B5B69394A43F400335361374BF0
:102970005B6903F400337B617B69344B5B69334AE9
:1029800043F480235361314B5B6903F480233B6143
:102990003B694FF40043FB6102233B6200237B62EF
:1029A0000023BB620223FB6207F11C0319464FF0B0
:1029B000904002F045FD0823FB6102233B620023A7
:1029C0007B620023BB620423FB6207F11C031946F0
:1029D000204802F035FD32E07B681B681E4A9342B6
:1029E0002DD11A4B5B69194A43F480235361174B6D
:1029F0005B6903F48023FB60FB684FF48043FB6159
:102A000002233B6200237B620023BB620123FB6243
:102A100007F11C0319460F4802F012FD4FF4004362
:102A2000FB6102233B6200237B620023BB62022323
:102A3000FB6207F11C031946064802F001FD00BFC6
:102A40003037BD4680BD00BF002C01400010024061
:102A500000340140000400480040014080B58CB0C3
:102A600000AF786007F11C0300221A605A609A6078
:102A7000DA601A617B681B68674A934228D1674B0A
:102A80009B69664A43F480439361644B9B6903F4FA
:102A90008043BB61BB69614B5B69604A43F480233F
:102AA00053615E4B5B6903F480237B617B69C023C8
:102AB000FB6102233B6200237B620323BB6207238B
:102AC000FB6207F11C031946554802F0B9FC9FE070
:102AD0007B681B68534A934240F09A804F4BDB69F6
:102AE0004E4A43F40033D3614C4BDB6903F40033AB
:102AF0003B613B69494B5B69484A43F4003353618E
:102B0000464B5B6903F40033FB60FB68434B5B6936
:102B1000424A43F480235361404B5B6903F48023B2
:102B2000BB60BB680423FB6102233B6200237B6222
:102B30000323BB620723FB6207F11C0319464FF016
:102B4000904002F07DFC1023FB6102233B620023D6
:102B50007B620323BB620723FB6207F11C03194658
:102B60002F4802F06DFC304B304A1A602E4B002289
:102B70005A602D4B00229A602B4B8022DA602A4B40
:102B800000221A61284B00225A61274B00229A61C9
:102B9000254B4FF40052DA61234802F01AFA03463B
:102BA000002B01D0FFF7C4FA7B681F4A5A671E4A00
:102BB0007B6853621E4B1F4A1A601D4B10225A60DD
:102BC0001B4B00229A601A4B8022DA60184B0022BD
:102BD0001A61174B00225A61154B00229A61144B5F
:102BE0000022DA61124802F0F4F90346002B01D00A
:102BF000FFF79EFA7B680E4A1A670D4A7B6853629C
:102C000000220121262002F0AEF9262002F0C7F9A9
:102C100000BF3037BD4680BD003801400010024083
:102C20000004004800440040C00400206C00024042
:102C3000040500208000024080B400AF00BFFDE723
:102C400080B400AF00BFFDE780B400AF00BFFDE778
:102C500080B400AF00BFFDE780B400AF00BFFDE768
:102C600080B400AF00BFBD465DF8047B704780B400
:102C700000AF00BFBD465DF8047B704780B400AF75
:102C800000BFBD465DF8047B704780B500AF00F023
:102C900031F900BF80BD80B400AF00BFBD465DF814
:102CA000047B704780B500AF022002F08DFD00BFAD
:102CB00080BD000080B500AF024802F0A7FA00BF57
:102CC00080BD00BFC004002080B500AF024802F004
:102CD0009DFA00BF80BD00BF0405002080B500AF95
:102CE000034800F023FF034800F020FF00BF80BD31
:102CF0008C000020DC00002080B500AF202002F016
:102D000063FD00BF80BD000080B500AF024806F043
:102D100043FB00BF80BD00BF8002002080B500AF34
:102D2000024802F0F6FF00BF80BD00BFC0010020D6
:102D300080B500AF024803F006F800BF80BD00BFB9
:102D4000C001002080B500AF024807F08DFF00BF32
:102D500080BD00BF3804002080B500AF4FF40050A4
:102D600002F032FD4FF4804002F02EFD00BF80BD26
:102D700080B500AF024802F049FA00BF80BD00BF35
:102D80007C01002080B586B000AF7860144A154BF6
:102D9000D31A7B617B693B61134B1B68002B02D10B
:102DA000114B124A1A60104B1A687B6813443A6937
:102DB0009A4207D209F026F903460C221A604FF016
:102DC000FF3309E0084B1B68FB60074B1A687B6800
:102DD0001344054A1360FB6818461837BD4680BD8A
:102DE00000A0002000040000400700209008002000
:102DF00080B400AF064BD3F88830054A43F4700323
:102E0000C2F8883000BFBD465DF8047B704700BF44
:102E100000ED00E0DFF834D0FFF7EAFF0C480D4981
:102E20000D4A002302E0D458C4500433C4188C4225
:102E3000F9D30A4A0A4C002301E013600432A2428B
:102E4000FBD309F0E5F8FDF78FFDFEE700A00020B9
:102E5000000000207000002030CA00087000002030
:102E600090080020FEE7000080B500AF084B1B680B
:102E7000074A43F010031360032002F069F80F20A3
:102E800000F008F8FFF7FCFA0023184680BD00BFE9
:102E90000020024080B582B000AF7860124B1A6803
:102EA000124B1B7819464FF47A73B3FBF1F3B2FB64
:102EB000F3F3184602F081F80346002B01D00123FA
:102EC0000EE07B680F2B0AD8002279684FF0FF30A4
:102ED00002F049F8064A7B681360002300E00123F2
:102EE00018460837BD4680BD140000201C00002095
:102EF0001800002080B400AF064B1B781A46064B22
:102F00001B681344044A136000BFBD465DF8047B90
:102F1000704700BF1C0000204407002080B400AFB1
:102F2000034B1B681846BD465DF8047B704700BF25
:102F30004407002080B584B000AF7860FFF7EEFF53
:102F4000B8607B68FB60FB68B3F1FF3F05D00A4BBC
:102F50001B781A46FB681344FB6000BFFFF7DEFFD7
:102F60000246BB68D31AFA689A42F7D800BF00BF7E
:102F70001037BD4680BD00BF1C00002080B483B068
:102F800000AF786000BF0C37BD465DF8047B70472A
:102F900080B483B000AF786000BF0C37BD465DF8E9
:102FA000047B704780B483B000AF786000BF0C37FB
:102FB000BD465DF8047B704780B59AB000AF78607D
:102FC000002387F8673000233B660023BB607B68E3
:102FD000002B01D10123C9E17B681B69002B7B68B1
:102FE0001B6C03F01003002B76D17B681B6C002B4D
:102FF00052D17B6800225A647B680022DA647B68C5
:1030000000229A647B68002283F83C207868FFF7EE
:1030100061FA7B681B689B6803F08053002B3BD1EF
:10302000786801F0A9FD034687F867307B681B6C60
:1030300003F01003002B2FD197F86730002B2BD112
:103040007B681B6C23F4885323F0020343F00202D5
:103050007B681A647B681B689A687B681B6822F02F
:1030600040529A607B681B689A687B681B6842F0D4
:1030700080529A60864B1B68864AA2FB03239A0CF7
:1030800013469B0013445B00BB6002E0BB68013B3E
:10309000BB60BB68002BF9D17B681B689B6803F0A1
:1030A0008053002B07D07B681B689B6803F000539C
:1030B000B3F1005F10D17B681B6C23F0120343F067
:1030C00010027B681A647B685B6C43F001027B68CA
:1030D0005A64012387F867307B681B6C03F0100388
:1030E000002B40F0368197F86730002B40F031819B
:1030F0007B681B689B6803F00403002B40F0298168
:103100007B681B6C23F4817343F002027B681A64B2
:103110007B681B68B3F1A04F04D07B681B685E4AD4
:10312000934201D15D4B00E05D4BFB657B681B6802
:10313000B3F1A04F02D1584BFB601AE07B681B68CB
:10314000554A934203D14FF0A043FB6011E07B68E6
:103150001B68544A934202D1534BFB6009E07B68E1
:103160001B68514A934202D14E4BFB6001E00023A1
:10317000FB607B681B689B6803F00303012B08D18D
:103180007B681B681B6803F00103012B01D101233D
:1031900000E00023002B1CD1FB68002B10D0FB6843
:1031A0009B6803F00303012B07D1FB681B6803F046
:1031B0000103012B01D1012300E00023002B08D1E2
:1031C000FB6D9B6823F440327B685B681A43FB6DA0
:1031D0009A607B685B7E5B037A68526B012A02D03F
:1031E0004FF4805200E000221A437B68DB681A43E8
:1031F0007B689B6813433A6E13433B667B6893F886
:103200002030012B1BD17B685B7E002B09D17B68B2
:103210005B6A013B5A043B6E134343F480333B66C5
:103220000DE07B681B6C23F0220343F020027B68D7
:103230001A647B685B6C43F001027B685A647B68AC
:103240009B6A012B3AD07B681B68164A934204D0D4
:103250007B681B68144A934228D17B689B6AB3F54C
:10326000307F12D07B689B6AB3F5807F0AD07B6881
:103270009B6AB3F5E07F02D07B689B6A18E04FF44D
:10328000807315E04FF4307312E04FF4E0730FE0F9
:103290001400002083DE1B43000100500003005097
:1032A0000007005000040050000500507B689B6A36
:1032B0007A68D26A13433A6E13433B667B681B6895
:1032C0009B6803F00C03002B14D17B681B68DB6840
:1032D0007A68126823F4804323F00203D3607B688A
:1032E0001B7E9A037B6893F830305B0013433A6E81
:1032F00013433B667B681B68DA681E4B13407A6891
:103300001268396E0B43D3607B681B69012B0CD1AB
:103310007B681B681B6B23F00F017B68DB695A1EFF
:103320007B681B680A431A6307E07B681B681A6B9B
:103330007B681B6822F00F021A637B6800225A64C4
:103340007B681B6C23F0030343F001027B681A6463
:103350000AE07B681B6C23F0120343F010027B68C9
:103360001A64012387F8673097F867301846683782
:10337000BD4680BD07C0F0FF80B584B000AF786067
:103380000023FB737B681B689B6803F00403002B1E
:1033900040F0F9807B6893F83C30012B01D1022387
:1033A000F4E07B68012283F83C20786801F080FB20
:1033B0000346FB73FB7B002B40F0E0807B681B6CBB
:1033C00023F4706323F0010343F480727B681A6472
:1033D0007B681B68B3F1A04F04D07B681B686D4A03
:1033E000934206D16C4B9B6803F01F03002B10D057
:1033F00005E06A4B9B6803F01F03002B09D07B6834
:103400001B68B3F1A04F04D07B681B68644A9342E9
:1034100015D17B681B6C23F480127B681A647B686F
:103420001B68DB6803F00073002B36D07B681B6CD5
:1034300023F4405343F480527B681A642DE07B6888
:103440001B6C43F480127B681A647B681B68B3F1C1
:10345000A04F04D07B681B684E4A93420AD14FF0BC
:10346000A043DB6803F00073002B14BF012300238B
:10347000DBB208E04A4BDB6803F00073002B14BF9B
:1034800001230023DBB2002B07D07B681B6C23F4E5
:10349000405343F480527B681A647B681B6C03F4CE
:1034A0008053B3F5805F06D17B685B6C23F0060226
:1034B0007B685A6402E07B6800225A647B680022C1
:1034C00083F83C207B681B681C221A607B681B68A1
:1034D000B3F1A04F04D07B681B682E4A934206D1FB
:1034E0002D4B9B6803F01F03002B3ED005E02B4BB8
:1034F0009B6803F01F03002B37D07B681B68B3F178
:10350000A04F04D07B681B68224A934206D1224B0D
:103510009B6803F01F03052B27D005E01F4B9B681A
:1035200003F01F03052B20D07B681B68B3F1A04F6D
:1035300004D07B681B68174A934206D1164B9B68E0
:1035400003F01F03092B10D005E0144B9B6803F018
:103550001F03092B09D07B681B68B3F1A04F04D06F
:103560007B681B680E4A93420FD17B681B689A6880
:103570007B681B6842F004029A6006E07B680022C8
:1035800083F83C2001E00223FB73FB7B18461037D5
:10359000BD4680BD000100500003005000070050F0
:1035A0000004005080B584B000AF78600023FB7346
:1035B0007B6893F83C30012B01D1022323E07B6828
:1035C000012283F83C206C21786801F03BFB034624
:1035D000FB73FB7B002B11D1786801F0CDFA034619
:1035E000FB73FB7B002B09D17B681B6C23F4885396
:1035F00023F0010343F001027B681A647B68002218
:1036000083F83C20FB7B18461037BD4680BD000088
:1036100080B586B000AF7860396000233B617B687D
:103620005B69082B02D108237B613AE07B681B6849
:10363000B3F1A04F04D07B681B68724A934201D15A
:10364000714B00E0714BFB60FB689B6803F01F034C
:10365000002B12D17B681B68DB6803F00103012B90
:103660001DD17B681B6C43F020027B681A647B6869
:10367000002283F83C200123BFE0FB689B6803F431
:103680004043002B0BD07B681B6C43F020027B680F
:103690001A647B68002283F83C200123ADE00C23F0
:1036A0007B617B681B68B3F1A04F04D07B681B680B
:1036B000544A934206D1544B9B6803F01F03002BDE
:1036C00010D005E0514B9B6803F01F03002B09D07D
:1036D0007B681B68B3F1A04F04D07B681B684C4A21
:1036E000934204D17B681B68DB683B610FE07B6819
:1036F0001B68B3F1A04F04D07B681B68414A93421A
:1037000002D14FF0A04300E0414BDB683B61FFF783
:1037100005FCB86021E03B68B3F1FF3F1DD03B687A
:10372000002B07D0FFF7FAFB0246BB68D31A3A68B2
:103730009A4212D27B681B681A687B691340002B7F
:103740000BD17B681B6C43F004027B681A647B68B6
:10375000002283F83C2003234FE07B681B681A6833
:103760007B691340002BD6D07B681B6C43F400723E
:103770007B681A647B681B68DB6803F44063002B7A
:1037800031D13B6903F40053002B2CD17B681B68BB
:103790001B6803F00803082B25D17B681B689B6816
:1037A00003F00403002B12D17B681B6C23F480729E
:1037B0007B681A647B681B6C03F48053002B12D166
:1037C0007B681B6C43F001027B681A640BE07B682A
:1037D0001B6C43F020027B681A647B685B6C43F0CF
:1037E00001027B685A643B6903F48043002B03D1D8
:1037F0007B681B687A691A60002318461837BD4633
:1038000080BD00BF000100500003005000070050C1
:103810000004005080B586B000AFF860B9607A60EF
:103820000023FB75FB681B689B6803F00403002BF7
:1038300040F0F780FB6893F83C30012B01D1022364
:10384000F2E0FB68012283F83C20FB681B68B3F1BF
:10385000A04F04D0FB681B68754A934209D1754B91
:103860009B6803F01F03002B0CBF01230023DBB276
:1038700008E0714B9B6803F01F03002B0CBF012372
:103880000023DBB2002B00F0C580F86801F010F9CE
:103890000346FB75FB7D002B40F0B780FB681B6C7B
:1038A00023F4706323F0010343F48072FB681A640D
:1038B000FB681B68B3F1A04F04D0FB681B685C4A2F
:1038C000934206D15B4B9B6803F01F03002B10D083
:1038D00005E0594B9B6803F01F03002B09D0FB68E0
:1038E0001B68B3F1A04F04D0FB681B68534A934296
:1038F00015D1FB681B6C23F48012FB681A64FB680B
:103900001B68DB6803F00073002B36D0FB681B6C70
:1039100023F4405343F48052FB681A642DE0FB68A3
:103920001B6C43F48012FB681A64FB681B68B3F1DC
:10393000A04F04D0FB681B683D4A93420AD14FF068
:10394000A043DB6803F00073002B14BF01230023A6
:10395000DBB208E0394BDB6803F00073002B14BFC7
:1039600001230023DBB2002B07D0FB681B6C23F480
:10397000405343F48052FB681A64FB681B6C03F4E9
:103980008053B3F5805F06D1FB685B6C23F00602C1
:10399000FB685A6402E0FB6800225A64FB6800225C
:1039A00083F83C20FB689B6B254A9A62FB689B6B03
:1039B000244ADA62FB689B6B234A1A63FB681B6824
:1039C0001C221A60FB681B685A68FB681B6842F07F
:1039D00010025A60FB681B68DA68FB681B6842F0DB
:1039E0000102DA60FB68986BFB681B68403319467C
:1039F000BA687B6801F034FBFB681B689A68FB6857
:103A00001B6842F004029A600DE0FB68002283F814
:103A10003C2008E00123FB75FB68002283F83C2072
:103A200001E00223FB75FB7D18461837BD4680BDBB
:103A30000001005000030050000700500004005037
:103A4000E54900085F4A00087B4A000880B584B059
:103A500000AF78600023FB737B6893F83C30012B48
:103A600001D1022350E07B68012283F83C206C21C5
:103A7000786801F0E7F80346FB73FB7B002B3ED12F
:103A80007B681B68DA687B681B6822F00102DA60D9
:103A90007B689B6B93F82130022B0FD17B689B6B6B
:103AA000184601F03CFB0346FB73FB7B002B05D063
:103AB0007B681B6C43F040027B681A647B681B6860
:103AC0005A687B681B6822F010025A60FB7B002B4F
:103AD00005D1786801F050F80346FB7302E078687E
:103AE00001F04AF8FB7B002B09D17B681B6C23F4A7
:103AF000885323F0010343F001027B681A647B685A
:103B0000002283F83C20FB7B18461037BD4680BD61
:103B100080B483B000AF78607B681B681B6C18466C
:103B20000C37BD465DF8047B7047000080B588B057
:103B300000AF78600023FB610023BB6100237B6141
:103B40007B681B681B683B617B681B685B68FB606C
:103B50003B6903F00403002B04D0FB6803F004036B
:103B6000002B0BD13B6903F00803002B00F0BC8055
:103B7000FB6803F00803002B00F0B6807B681B6C29
:103B800003F01003002B05D17B681B6C43F400721B
:103B90007B681A647B681B68B3F1A04F04D07B6814
:103BA0001B68904A934206D18F4B9B6803F01F031A
:103BB000002B3ED005E08D4B9B6803F01F03002BCC
:103BC00037D07B681B68B3F1A04F04D07B681B68BB
:103BD000844A934206D1844B9B6803F01F03052B54
:103BE00027D005E0814B9B6803F01F03052B20D0F5
:103BF0007B681B68B3F1A04F04D07B681B68794ACF
:103C0000934206D1784B9B6803F01F03092B10D019
:103C100005E0764B9B6803F01F03092B09D07B68F6
:103C20001B68B3F1A04F04D07B681B68704A9342B5
:103C300004D17B681B68DB68BB610FE07B681B6895
:103C4000B3F1A04F04D07B681B68664A934202D14F
:103C50004FF0A04300E0664BDB68BB617B681B68EC
:103C6000DB6803F44063002B37D1BB6903F40053D6
:103C7000002B32D13B6903F00803002B2DD07B6869
:103C80001B689B6803F00403002B1AD17B681B6838
:103C90005A687B681B6822F00C025A607B681B6CB8
:103CA00023F480727B681A647B681B6C03F4805376
:103CB000002B12D17B681B6C43F001027B681A64F5
:103CC0000BE07B681B6C43F010027B681A647B6816
:103CD0005B6C43F001027B685A647868FEF712FA65
:103CE0007B681B680C221A603B6903F02003002BE1
:103CF00004D0FB6803F02003002B0BD13B6903F0D9
:103D00004003002B00F03881FB6803F04003002BD8
:103D100000F032817B681B6C43F400527B681A64AC
:103D20007B681B68B3F1A04F04D07B681B682D4AE9
:103D3000934206D12C4B9B6803F01F03002B3ED00F
:103D400005E02A4B9B6803F01F03002B37D07B68EC
:103D50001B68B3F1A04F04D07B681B68214A9342D3
:103D600006D1214B9B6803F01F03052B27D005E0EC
:103D70001E4B9B6803F01F03052B20D07B681B683C
:103D8000B3F1A04F04D07B681B68164A934206D15A
:103D9000154B9B6803F01F03092B10D005E0134B54
:103DA0009B6803F01F03092B09D07B681B68B3F1E4
:103DB000A04F04D07B681B680D4A934204D17B68F6
:103DC0001B68DB68BB6118E07B681B68B3F1A04F20
:103DD00004D07B681B68034A93420BD14FF0A04389
:103DE00009E000BF00010050000300500007005030
:103DF00000040050924BDB68BB617B681B68DB6C86
:103E000003F0C003002B40F0B080BB6903F00073E7
:103E1000002B0DD07B681B68DB6803F44063002B2C
:103E200040F0A380BB6903F40053002B40F09D8059
:103E30003B6903F04003002B00F097807B681B6810
:103E4000B3F1A04F04D07B681B687E4A934206D131
:103E50007D4B9B6803F01F03002B3ED005E07B4B9E
:103E60009B6803F01F03002B37D07B681B68B3F1FE
:103E7000A04F04D07B681B68724A934206D1724BF4
:103E80009B6803F01F03062B27D005E06F4B9B6850
:103E900003F01F03062B20D07B681B68B3F1A04FF3
:103EA00004D07B681B68674A934206D1664B9B68C7
:103EB00003F01F03072B10D005E0644B9B6803F051
:103EC0001F03072B09D07B681B68B3F1A04F04D0F8
:103ED0007B681B685A4A934204D17B681B68DB6885
:103EE0007B610FE07B681B68B3F1A04F04D07B6857
:103EF0001B68544A934202D14FF0A04300E0504B5C
:103F0000DB687B617B6903F40013002B2DD17B6898
:103F10001B689B6803F00803002B1AD17B681B68A1
:103F20005A687B681B6822F060025A607B681B6CD1
:103F300023F480527B681A647B681B6C03F48073E3
:103F4000002B12D17B681B6C43F001027B681A6462
:103F50000BE07B681B6C43F010027B681A647B6883
:103F60005B6C43F001027B685A64786800F036F9B4
:103F70007B681B6860221A603B6903F08003002B9A
:103F800011D0FB6803F08003002B0CD07B681B6C06
:103F900043F480327B681A647868FEF7F9FF7B6827
:103FA0001B6880221A603B6903F48073002B12D0D7
:103FB000FB6803F48073002B0DD07B681B6C43F40B
:103FC00000327B681A64786800F01CF97B681B6813
:103FD0004FF480721A603B6903F40073002B12D017
:103FE000FB6803F40073002B0DD07B681B6C43F45B
:103FF00080227B681A64786800F00EF97B681B6881
:104000004FF400721A603B6903F01003002B4FD08D
:10401000FB6803F01003002B4AD07B685B6B012B1D
:1040200002D10123FB612DE07B681B68B3F1A04F37
:1040300004D07B681B68034A934209D1024B08E015
:104040000004005000010050000300500007005021
:10405000284BBB60BB689B6803F01F03002B09D192
:104060007B681B68DB6803F00103012B0AD1012385
:10407000FB6107E0BB689B6803F44043002B01D061
:104080000123FB61FB69012B0ED17B681B6C43F4A0
:1040900080627B681A647B685B6C43F002027B6819
:1040A0005A647868FEF77EFF7B681B6810221A60EE
:1040B0003B6903F48063002B18D0FB6803F4806332
:1040C000002B13D07B681B6C43F480427B681A641E
:1040D0007B685B6C43F008027B685A647B681B68F2
:1040E0004FF480621A60786800F082F800BF2037D1
:1040F000BD4680BD0007005080B584B000AF786039
:1041000039600023FB737B6893F83C30012B01D1AD
:1041100002235FE07B68012283F83C20786800F08E
:104120002BFD0346FB73FB7B002B4ED17B680122EA
:104130001A647B681B689A687B681B6822F080425F
:104140009A603B68012B07D17B681B689A687B6883
:104150001B6842F080429A607B681B689A687B68A3
:104160001B6842F000429A60FEF7D8FEB8601CE07F
:10417000FEF7D4FE0246BB68D31A0A2B15D97B681A
:104180001B689B6803F00043B3F1004F0DD17B68BF
:104190001B6C23F0120343F010027B681A647B68E7
:1041A000002283F83C20012314E07B681B689B6895
:1041B00003F00043B3F1004FDAD07B681B6C23F0AF
:1041C000030343F001027B681A647B68002283F8D2
:1041D0003C20FB7B18461037BD4680BD80B483B0C1
:1041E00000AF786000BF0C37BD465DF8047B7047B8
:1041F00080B483B000AF786000BF0C37BD465DF877
:10420000047B704780B483B000AF786000BF0C3788
:10421000BD465DF8047B704780B483B000AF786022
:1042200000BF0C37BD465DF8047B704780B49BB07F
:1042300000AF78603960002387F867300023BB60E7
:104240007B6893F83C30012B01D10223C8E27B68E4
:10425000012283F83C207B681B689B6803F0040301
:10426000002B40F0AC823B685B68042B1CD87B6859
:104270001B68196B3B685A6813465B0013445B006C
:104280001A461F239340DB4319403B6818683B687C
:104290005A6813465B0013445B0000FA03F27B6824
:1042A0001B680A431A6363E03B685B68092B1ED8EE
:1042B0007B681B68596B3B685A6813465B00134464
:1042C0005B001E3B1F2202FA03F3DB4319403B68ED
:1042D00018683B685A6813465B0013445B001E3B3A
:1042E00000FA03F27B681B680A435A6340E03B68AC
:1042F0005B680E2B1ED87B681B68996B3B685A68FD
:1043000013465B0013445B003C3B1F2202FA03F39D
:10431000DB4319403B6818683B685A6813465B00EA
:1043200013445B003C3B00FA03F27B681B680A43C2
:104330009A631DE07B681B68D96B3B685A6813461B
:104340005B0013445B005A3B1F2202FA03F3DB437A
:1043500019403B6818683B685A6813465B00134471
:104360005B005A3B00FA03F27B681B680A43DA637E
:104370007B681B689B6803F00C03002B40F0E58012
:104380003B681B68092B1CD97B681B6899693B68D3
:104390001A6813465B0013441E3B072202FA03F31C
:1043A000DB4319403B6898683B681A6813465B001A
:1043B00013441E3B00FA03F27B681B680A439A61B0
:1043C00019E07B681B6859693B681A6813465B00F3
:1043D0001344072202FA03F3DB4319403B68986851
:1043E0003B681A6813465B00134400FA03F27B68CB
:1043F0001B680A435A613B685A697B681B68DB6823
:10440000DB0803F003035B0002FA03F33B663B683F
:104410001B69013B032B4FD801A252F823F000BFC8
:1044200031440008534400087544000897440008CC
:104430007B681B681A6E994B13403A6812689106A4
:104440003A6E0A431A437B681B6842F000421A66C0
:104450007BE07B681B685A6E904B13403A68126889
:1044600091063A6E0A431A437B681B6842F0004289
:104470005A666AE07B681B689A6E884B13403A68FC
:10448000126891063A6E0A431A437B681B6842F031
:1044900000429A6659E07B681B68DA6E7F4B1340D6
:1044A0003A68126891063A6E0A431A437B681B68A1
:1044B00042F00042DA6648E07B681B681B6E03F03E
:1044C000F8423B681B689B069A4207D17B681B68D1
:1044D0001A6E7B681B6822F000421A667B681B68B4
:1044E0005B6E03F0F8423B681B689B069A4207D15B
:1044F0007B681B685A6E7B681B6822F000425A6614
:104500007B681B689B6E03F0F8423B681B689B0648
:104510009A4207D17B681B689A6E7B681B6822F001
:1045200000429A667B681B68DB6E03F0F8423B68CA
:104530001B689B069A4207D17B681B68DA6E7B6812
:104540001B6822F00042DA6600BF7B681B689B682C
:1045500003F00303012B08D17B681B681B6803F081
:104560000103012B01D1012300E00023002B40F0C7
:1045700031813B68DB68012B0FD07B681B68D3F867
:10458000B0103B681B68012202FA03F3DA437B6830
:104590001B680A40C3F8B02049E07B681B68D3F869
:1045A000B0103B681B6801229A407B681B680A4375
:1045B000C3F8B0203B681B68092B1CD97B681B68BB
:1045C00099693B681A6813465B0013441B3B07223A
:1045D00002FA03F3DB4319403B6898683B681A68AA
:1045E00013465B0013441B3B00FA03F27B681B6815
:1045F0000A439A611BE07B681B6859693B681B682A
:104600005A1C13465B001344072202FA03F3DB43F0
:1046100019403B6898683B681B685A1C13465B004E
:10462000134400FA03F27B681B680A435A617B68F3
:104630001B68B3F1A04F04D07B681B68184A9342F3
:1046400001D1184B00E0184BFB653B681B68102B31
:1046500005D1FB6D9B6803F40003002B15D03B686C
:104660001B68112B05D1FB6D9B6803F08073002B39
:104670000BD03B681B68122B40F0AC80FB6D9B6835
:1046800003F48003002B40F0A5807B681B68B3F126
:10469000A04F0BD1024BFB6023E000BF00F0FF8373
:1046A0000001005000030050000700507B681B68A9
:1046B0004E4A934203D14FF0A043FB6011E07B6868
:1046C0001B684B4A934202D14A4BFB6009E07B686E
:1046D0001B68484A934202D1454BFB6001E000232E
:1046E000FB607B681B689B6803F00303012B08D108
:1046F0007B681B681B6803F00103012B01D10123B8
:1047000000E00023002B50D1FB68002B10D0FB6889
:104710009B6803F00303012B07D1FB681B6803F0C0
:104720000103012B01D1012300E00023002B3CD128
:104730003B681B68102B1DD17B681B68B3F1A04F31
:1047400018D1FB6D9B6843F40002FB6D9A602A4B05
:104750001B682A4AA2FB03239A0C13469B001344AE
:104760005B00BB6002E0BB68013BBB60BB68002B29
:10477000F9D12EE03B681B68112B0BD17B681B68BD
:10478000B3F1A04F06D1FB6D9B6843F08072FB6DC7
:104790009A601EE03B681B68122B1AD1FB6D9B6868
:1047A00043F48002FB6D9A6013E07B681B6C43F05E
:1047B00020027B681A64012387F867300AE07B686F
:1047C0001B6C43F020027B681A64012387F8673072
:1047D00000E000BF7B68002283F83C2097F8673038
:1047E00018466C37BD465DF8047B704700010050E9
:1047F00000040050000500501400002083DE1B431D
:1048000080B499B000AF78603960002387F85F30DA
:104810007B681B68B3F1A04F02D16D4BBB601AE0FF
:104820007B681B686A4A934203D14FF0A043BB6088
:1048300011E07B681B68674A934202D1664BBB60FC
:1048400009E07B681B68644A934202D1614BBB60FC
:1048500001E00023BB60BB68002B01D10123B0E065
:104860007B6893F83C30012B01D10223A9E07B68DF
:10487000012283F83C207B681B689B6803F00403DB
:10488000002B40F08D80BB689B6803F00403002B75
:1048900040F086807B681B68B3F1A04F04D07B6832
:1048A0001B684B4A934201D14C4B00E04C4BBB651B
:1048B0003B681B68002B40D0BB6D9B6823F46042B3
:1048C0003B6859687B6893F830305B030B431A43AD
:1048D000BB6D9A607B681B689B6803F00303012B28
:1048E00008D17B681B681B6803F00103012B01D111
:1048F000012300E00023002B5CD1BB689B6803F020
:104900000303012B07D1BB681B6803F00103012BD4
:1049100001D1012300E00023002B4BD1BB6D9B682C
:1049200023F4716323F00F033A6811683A689268C0
:104930000A431A43BB6D9A603CE0BB6D9B6823F44D
:104940006042BB6D9A607B681B689B6803F0030341
:10495000012B08D17B681B681B6803F00103012B46
:1049600001D1012300E00023002B23D1BB689B6809
:1049700003F00303012B07D1BB681B6803F001039D
:10498000012B01D1012300E00023002B12D1BB6DCC
:104990009B6823F4716323F00F03BA6D936009E001
:1049A0007B681B6C43F020027B681A64012387F844
:1049B0005F3000E000BF7B68002283F83C2097F85E
:1049C0005F3018466437BD465DF8047B704700BF12
:1049D000000100500004005000050050000300508A
:1049E0000007005080B584B000AF78607B685B6AD8
:1049F000FB60FB681B6C03F05003002B26D1FB68A7
:104A00001B6C43F40072FB681A64FB681B68DB686C
:104A100003F44063002B15D1FB685B7E002B11D1A2
:104A2000FB681B6C23F48072FB681A64FB681B6CC8
:104A300003F48053002B05D1FB681B6C43F001028B
:104A4000FB681A64F868FDF75DFB04E0FB689B6B8C
:104A50001B6B7868984700BF1037BD4680BD80B596
:104A600084B000AF78607B685B6AFB60F868FEF733
:104A700085FA00BF1037BD4680BD80B584B000AF59
:104A800078607B685B6AFB60FB681B6C43F04002EC
:104A9000FB681A64FB685B6C43F00402FB685A64B1
:104AA000F868FEF77FFA00BF1037BD4680BD0000F2
:104AB00080B584B000AF78600023FB607B681B6822
:104AC0009B6803F00303012B08D17B681B681B68FC
:104AD00003F00103012B01D1012300E00023002B8F
:104AE00043D17B681B689A68224B1340002B0DD082
:104AF0007B681B6C43F010027B681A647B685B6CFC
:104B000043F001027B685A6401232FE07B681B6835
:104B10009A687B681B6842F001029A60FEF7FEF912
:104B2000F8601BE0FEF7FAF90246FB68D31A022B85
:104B300014D97B681B681B6803F00103012B0DD09F
:104B40007B681B6C43F010027B681A647B685B6CAB
:104B500043F001027B685A64012307E07B681B680D
:104B60001B6803F00103012BDCD10023184610372A
:104B7000BD4680BD3F00008080B584B000AF786046
:104B80000023FB607B681B689B6803F00303012B19
:104B900008D17B681B681B6803F00103012B01D15E
:104BA000012300E00023002B47D07B681B689B6833
:104BB00003F00D03012B0FD17B681B689A687B689B
:104BC0001B6842F002029A607B681B6803221A602D
:104BD000FEF7A4F9F86029E07B681B6C43F0100233
:104BE0007B681A647B685B6C43F001027B685A64E3
:104BF000012323E0FEF792F90246FB68D31A022B49
:104C000014D97B681B689B6803F00103012B0DD14D
:104C10007B681B6C43F010027B681A647B685B6CDA
:104C200043F001027B685A64012307E07B681B683C
:104C30009B6803F00103012BDCD0002318461037DA
:104C4000BD4680BD80B586B000AF78603960002376
:104C50007B610023FB6000233B617B681B689B68D2
:104C600003F00C03002B00F09B807B681B68DB6863
:104C700003F00073B3F1007F2AD17B685B7E012BC8
:104C800026D17B681B7E012B22D10C233B6014E0D4
:104C90003B69464A93420DD97B681B6C43F0100276
:104CA0007B681A647B685B6C43F001027B685A6422
:104CB000012376E03B6901333B617B681B681B681D
:104CC00003F04003402BE3D17B681B6840221A604D
:104CD0003B68602B15D07B681B689B6803F004035E
:104CE000042B0ED17B681B689B6803F00203002B2A
:104CF00007D17B681B689A687B681B6842F01002CA
:104D00009A603B680C2B15D07B681B689B6803F08E
:104D10000803082B0ED17B681B689B6803F0020315
:104D2000002B07D17B681B689A687B681B6842F080
:104D300020029A603B68602B05D03B686C2B05D144
:104D40000C237B6105E008237B6102E004237B6187
:104D500000BFFEF7E3F8F8601BE0FEF7DFF802465D
:104D6000FB68D31A0B2B14D97B681B689A687B6984
:104D70001340002B0DD07B681B6C43F010027B6846
:104D80001A647B685B6C43F001027B685A64012300
:104D900007E07B681B689A687B691340002BDCD1B5
:104DA000002318461837BD4680BD00BFFF93090099
:104DB00080B485B000AF78607B6803F00703FB60C8
:104DC0000C4BDB68BB60BA684FF6FF031340BB6057
:104DD000FB681A02BB68134343F0BF6343F400331C
:104DE000BB60044ABB68D36000BF1437BD465DF8A2
:104DF000047B704700ED00E080B400AF044BDB683B
:104E00001B0A03F007031846BD465DF8047B704794
:104E100000ED00E080B483B000AF0346FB7197F96A
:104E20000730002B0BDBFB7903F01F02074997F9D2
:104E300007305B09012000FA02F241F8232000BF8D
:104E40000C37BD465DF8047B704700BF00E100E011
:104E500080B483B000AF03463960FB7197F9073027
:104E6000002B0ADB3B68DAB20C4997F907301201D4
:104E7000D2B20B4483F800230AE03B68DAB2084957
:104E8000FB7903F00F03043B1201D2B20B441A76F4
:104E900000BF0C37BD465DF8047B704700E100E0C1
:104EA00000ED00E080B489B000AFF860B9607A60CE
:104EB000FB6803F00703FB61FB69C3F10703042BE5
:104EC00028BF0423BB61FB690433062B02D9FB69AD
:104ED000033B00E000237B614FF0FF32BB6902FA25
:104EE00003F3DA43BB681A407B699A404FF0FF3105
:104EF0007B6901FA03F3D9437B680B4013431846DF
:104F00002437BD465DF8047B7047000080B582B051
:104F100000AF78607B68013BB3F1807F01D3012350
:104F20000FE00A4A7B68013B53600F214FF0FF30CE
:104F3000FFF78EFF054B00229A60044B07221A6090
:104F4000002318460837BD4680BD00BF10E000E0D2
:104F500080B582B000AF78607868FFF729FF00BFA6
:104F60000837BD4680BD80B586B000AF0346B96046
:104F70007A60FB7300237B61FFF73EFF78617A68FC
:104F8000B9687869FFF78EFF024697F90F3011462E
:104F90001846FFF75DFF00BF1837BD4680BD80B5DE
:104FA00082B000AF0346FB7197F907301846FFF750
:104FB00031FF00BF0837BD4680BD80B582B000AF6D
:104FC00078607868FFF7A2FF034618460837BD46A9
:104FD00080BD80B584B000AF78600023FB607B6843
:104FE000002B01D1012337E07B68022283F82120C6
:104FF0007B681B681B68FB60FB6823F47F5323F00E
:105000003003FB607B685A687B689B681A437B6847
:10501000DB681A437B681B691A437B685B691A4328
:105020007B689B691A437B68DB691343FA68134307
:10503000FB607B681B68FA681A60786800F0C4F946
:105040007B6800229A637B68012283F821207B68B9
:10505000002283F82020002318461037BD4680BD6B
:1050600080B586B000AFF860B9607A603B6000231D
:10507000FB75FB6893F82030012B01D102234AE035
:10508000FB68012283F82020FB6893F82130012B74
:105090003AD1FB68022283F82120FB6800229A6340
:1050A000FB681B681A68FB681B6822F001021A6023
:1050B0003B687A68B968F86800F058F9FB68DB6A01
:1050C000002B08D0FB681B681A68FB681B6842F05D
:1050D0000E021A600FE0FB681B681A68FB681B6809
:1050E00042F00A021A60FB681B681A68FB681B68BA
:1050F00022F004021A60FB681B681A68FB681B68D0
:1051000042F001021A6005E0FB68002283F82020CB
:105110000223FB75FB7D18461837BD4680BD80B461
:1051200083B000AF78607B6893F82130022B08D001
:105130007B6804229A637B68002283F82020012385
:1051400020E07B681B681A687B681B6822F00E02EF
:105150001A607B681B681A687B681B6822F0010272
:105160001A607B681A6C7B68DB6B012101FA02F222
:105170005A607B68012283F821207B68002283F833
:105180002020002318460C37BD465DF8047B70478D
:1051900080B584B000AF78600023FB737B6893F820
:1051A0002130022B05D07B6804229A630123FB7314
:1051B00027E07B681B681A687B681B6822F00E0278
:1051C0001A607B681B681A687B681B6822F0010202
:1051D0001A607B681A6C7B68DB6B012101FA02F2B2
:1051E0005A607B68012283F821207B68002283F8C3
:1051F00020207B685B6B002B03D07B685B6B78683F
:105200009847FB7B18461037BD4680BD80B584B0FB
:1052100000AF78607B68DB6B1B68FB607B681B689A
:105220001B68BB607B681B6C04229A40FB681340C0
:10523000002B24D0BB6803F00403002B1FD07B6835
:105240001B681B6803F02003002B07D17B681B68D9
:105250001A687B681B6822F004021A607B681A6C6B
:105260007B68DB6B042101FA02F25A607B68DB6A1F
:10527000002B6AD07B68DB6A7868984765E07B68BA
:105280001B6C02229A40FB681340002B2CD0BB6899
:1052900003F00203002B27D07B681B681B6803F018
:1052A0002003002B0BD17B681B681A687B681B6886
:1052B00022F00A021A607B68012283F821207B68B1
:1052C0001A6C7B68DB6B022101FA02F25A607B6880
:1052D000002283F820207B689B6A002B35D07B68F6
:1052E0009B6A7868984730E07B681B6C08229A407C
:1052F000FB681340002B28D0BB6803F00803002B89
:1053000023D07B681B681A687B681B6822F00E023A
:105310001A607B681A6C7B68DB6B012101FA02F270
:105320005A607B6801229A637B68012283F82120FE
:105330007B68002283F820207B681B6B002B04D045
:105340007B681B6B78689847FFE700BF1037BD4646
:1053500080BD80B483B000AF78607B6893F8213063
:1053600018460C37BD465DF8047B704780B485B0A5
:1053700000AFF860B9607A603B60FB681A6CFB684C
:10538000DB6B012101FA02F25A60FB681B683A6884
:105390005A60FB685B68102B08D1FB681B687A6851
:1053A0009A60FB681B68BA68DA6007E0FB681B68F4
:1053B000BA689A60FB681B687A68DA6000BF1437C5
:1053C000BD465DF8047B704780B483B000AF786061
:1053D0007B681B681A46144B9A420FD87B681B687F
:1053E0001A46124B1344124AA2FB03231B099A00CC
:1053F0007B681A647B680F4ADA630EE07B681B687F
:105400001A460D4B13440A4AA2FB03231B099A00B8
:105410007B681A647B68094ADA6300BF0C37BD46B3
:105420005DF8047B704700BF07040240F8FFFDBF32
:10543000CDCCCCCC00000240F8FBFDBF0004024004
:1054400080B487B000AF7860396000237B6154E19D
:105450003B681A6801217B6901FA03F31340FB6082
:10546000FB68002B00F046813B685B6803F0030398
:10547000012B05D03B685B6803F00303022B30D19E
:105480007B689B683B617B695B00032202FA03F344
:10549000DB433A6913403B613B68DA687B695B0038
:1054A00002FA03F33A6913433B617B683A699A60F5
:1054B0007B685B683B6101227B6902FA03F3DB4393
:1054C0003A6913403B613B685B681B0903F00102CA
:1054D0007B6902FA03F33A6913433B617B683A69DB
:1054E0005A603B685B6803F00303032B17D07B68AB
:1054F000DB683B617B695B00032202FA03F3DB4359
:105500003A6913403B613B689A687B695B0002FA29
:1055100003F33A6913433B617B683A69DA603B689D
:105520005B6803F00303022B23D17B69DA087B68F5
:10553000083253F822303B617B6903F007039B007C
:105540000F2202FA03F3DB433A6913403B613B68E5
:105550001A697B6903F007039B0002FA03F33A69B7
:1055600013433B617B69DA087B680832396943F889
:1055700022107B681B683B617B695B00032202FA97
:1055800003F3DB433A6913403B613B685B6803F01C
:1055900003027B695B0002FA03F33A6913433B6140
:1055A0007B683A691A603B685B6803F44033002B00
:1055B00000F0A080584B9B69574A43F00103936168
:1055C000554B9B6903F00103BB60BB68534A7B6981
:1055D0009B08023352F823303B617B6903F00303DD
:1055E0009B000F2202FA03F3DB433A6913403B614D
:1055F0007B68B3F1904F19D07B68494A934213D02E
:105600007B68484A93420DD07B68474A934207D053
:105610007B68464A934201D1042308E0052306E053
:10562000032304E0022302E0012300E000237A695F
:1056300002F00302920093403A6913433B613749F9
:105640007B699B0802333A6941F82320384B9B68F9
:105650003B61FB68DB433A6913403B613B685B6835
:1056600003F48013002B03D03A69FB6813433B61BA
:105670002F4A3B6993602E4BDB683B61FB68DB4341
:105680003A6913403B613B685B6803F40013002BED
:1056900003D03A69FB6813433B61254A3B69D360F9
:1056A000234B5B683B61FB68DB433A6913403B611A
:1056B0003B685B6803F40033002B03D03A69FB6856
:1056C00013433B611A4A3B695360194B1B683B61AA
:1056D000FB68DB433A6913403B613B685B6803F45A
:1056E0008033002B03D03A69FB6813433B61104AB7
:1056F0003B6913607B6901337B613B681A687B6996
:1057000022FA03F3002B7FF4A3AE00BF00BF1C37C7
:10571000BD465DF8047B7047001002400000014068
:105720000004004800080048000C00480010004831
:105730000004014080B485B000AF78600B467B80E8
:105740007B681A697B881340002B02D00123FB730E
:1057500001E00023FB73FB7B18461437BD465DF860
:10576000047B704780B483B000AF78600B467B80C9
:1057700013467B707B78002B03D07A887B689A6114
:1057800002E07A887B689A6200BF0C37BD465DF8FC
:10579000047B704780B485B000AF78600B467B8097
:1057A0007B685B69FB607A88FB6813401A04FB68BE
:1057B000D9437B880B401A437B689A6100BF14373A
:1057C000BD465DF8047B704780B582B000AF0346EC
:1057D000FB80084B5A69FB881340002B06D0054A12
:1057E000FB885361FB881846FCF788FB00BF08372D
:1057F000BD4680BD0004014080B582B000AF786036
:105800007B68002B01D1012381E07B6893F8413054
:10581000DBB2002B06D17B68002283F84020786839
:10582000FCF758FF7B68242283F841207B681B68C3
:105830001A687B681B6822F001021A607B685A684C
:105840007B681B6822F070621A617B681B689A682B
:105850007B681B6822F400429A607B68DB68012B3E
:1058600007D17B689A687B681B6842F400429A60A3
:1058700006E07B689A687B681B6842F404429A6081
:105880007B68DB68022B04D17B681B684FF40062E5
:105890005A607B681B685B687A68126843F0007323
:1058A00043F4004353607B681B68DA687B681B68BD
:1058B00022F40042DA607B681A697B685B6942EA1D
:1058C00003017B689B691A027B681B680A43DA60E4
:1058D0007B68D9697B681A6A7B681B680A431A600F
:1058E0007B681B681A687B681B6842F001021A60BB
:1058F0007B6800225A647B68202283F841207B6801
:1059000000221A637B68002283F842200023184695
:105910000837BD4680BD000080B588B002AFF86092
:105920007A601A460B467B8113463B81FB6893F8ED
:105930004130DBB2202B40F0DA80FB6893F8403036
:10594000012B01D10223D3E0FB68012283F8402020
:10595000FDF7E4FA78617B690093192301224FF483
:105960000041F86800F015FF0346002B01D0012329
:10597000BEE0FB68212283F84120FB68102283F8F7
:105980004220FB6800225A64FB687A685A62FB680E
:105990003A895A85FB6800225A63FB685B8D9BB28B
:1059A000FF2B0ED9FB68FF221A85FB681B8DDAB22C
:1059B0007989514B00934FF08073F86801F0A2F899
:1059C0006CE0FB685B8D9AB2FB681A85FB681B8DE7
:1059D000DAB27989484B00934FF00073F86801F010
:1059E00091F85BE07A69396AF86800F021FF0346B4
:1059F000002B01D001237BE0FB685B6A1A78FB680F
:105A00001B689A62FB685B6A5A1CFB685A62FB68F7
:105A10005B8D9BB2013B9AB2FB685A85FB681B8D7C
:105A2000013B9AB2FB681A85FB685B8D9BB2002B29
:105A300034D0FB681B8D002B30D17B6900933B6A0F
:105A400000228021F86800F0A4FE0346002B01D05C
:105A500001234DE0FB685B8D9BB2FF2B0ED9FB68E9
:105A6000FF221A85FB681B8DDAB279890023009327
:105A70004FF08073F86801F045F80FE0FB685B8D2C
:105A80009AB2FB681A85FB681B8DDAB2798900230C
:105A900000934FF00073F86801F034F8FB685B8DF9
:105AA0009BB2002B9ED17A69396AF86800F007FF33
:105AB0000346002B01D001231AE0FB681B6820225B
:105AC000DA61FB681B685968FB681A680B4B0B406E
:105AD0005360FB68202283F84120FB68002283F892
