:020000040800F2
:1000000000A0002085400008953D00089B3D0008A9
:10001000A13D0008A73D0008AD3D0008000000001C
:10002000000000000000000000000000B33D0008D8
:10003000C13D000800000000CF3D0008DD3D000884
:10004000D5400008D5400008D5400008D54000083C
:10005000D5400008E93D0008D5400008F73D0008FC
:10006000D5400008D5400008D5400008D54000081C
:10007000D5400008D5400008D5400008D54000080C
:10008000053E0008193E00082D3E0008D540000836
:10009000D5400008D5400008D5400008493E00087A
:1000A000D5400008D5400008D5400008D5400008DC
:1000B000593E00086D3E0008813E0008D54000080A
:1000C000D5400008D5400008D5400008D5400008BC
:1000D000D5400008D5400008953E0008D5400008EE
:1000E000A93E0008D5400008D5400008D5400008CA
:1000F000D5400008D5400008D5400008D54000088C
:10010000000000000000000000000000D5400008D2
:10011000D5400008D5400008D5400008D54000086B
:10012000C13E0008D5400008D5400008D540000871
:10013000D5400008D5400008000000000000000085
:10014000D5400008D5400008D54000080000000058
:10015000000000000000000000000000000000009F
:100160000000000000000000D5400008D540000855
:10017000D540000800000000000000000000000062
:0801800000000000D54000085A
:1001900010B5054C237833B9044B13B10448AFF3C1
:1001A00000800123237010BDE0010020000000004A
:1001B00090F5000808B5034B1BB103490348AFF3A2
:1001C000008008BD00000000E401002090F5000858
:1001D00001F0FF01102A2BDB10F0070F08D010F8F8
:1001E000013B013A8B422DD010F0070F42B3F6D1FC
:1001F000F0B441EA012141EA014122F007047FF015
:1002000000070023F0E80256083C85EA010586EA6B
:10021000010685FA47F5A3FA87F586FA47F6A5FAA7
:1002200087F68EB9EED1F0BC01F0FF0102F00702B3
:1002300032B110F8013B013A83EA010313B1F8D15E
:100240000020704701387047002D06BF354603383F
:10025000073815F0010F07D1013015F4807F02BF78
:10026000013015F4C03F0130F0BC0138704700BFC9
:10027000034613F8012B002AFBD1181A01387047E6
:1002800081F0004102E000BF83F0004330B54FEA47
:1002900041044FEA430594EA050F08BF90EA020FB4
:1002A0001FBF54EA000C55EA020C7FEA645C7FEA47
:1002B000655C00F0E2804FEA5454D4EB5555B8BF6A
:1002C0006D420CDD2C4480EA020281EA030382EADB
:1002D000000083EA010180EA020281EA0303362D6D
:1002E00088BF30BD11F0004F4FEA01314FF4801C40
:1002F0004CEA113102D0404261EB410113F0004F52
:100300004FEA03334CEA133302D0524263EB430308
:1003100094EA050F00F0A780A4F10104D5F1200EA6
:100320000DDB02FA0EFC22FA05F2801841F1000101
:1003300003FA0EF2801843FA05F359410EE0A5F1D5
:1003400020050EF1200E012A03FA0EFC28BF4CF006
:10035000020C43FA05F3C01851EBE37101F00045BC
:1003600007D54FF0000EDCF1000C7EEB00006EEBC9
:100370000101B1F5801F1BD3B1F5001F0CD3490853
:100380005FEA30004FEA3C0C04F101044FEA4452AA
:1003900012F5800F80F09A80BCF1004F08BF5FEA31
:1003A000500C50F1000041EB045141EA050130BD11
:1003B0005FEA4C0C404141EB0101013C28BFB1F523
:1003C000801FE9D291F0000F04BF01460020B1FA6E
:1003D00081F308BF2033A3F10B03B3F120020CDA41
:1003E0000C3208DD02F1140CC2F10C0201FA0CF01F
:1003F00021FA02F10CE002F11402D8BFC2F1200C84
:1004000001FA02F120FA0CFCDCBF41EA0C01904039
:10041000E41AA2BF01EB0451294330BD6FEA040482
:100420001F3C1CDA0C340EDC04F11404C4F120026D
:1004300020FA04F001FA02F340EA030021FA04F37F
:1004400045EA030130BDC4F10C04C4F1200220FAD6
:1004500002F001FA04F340EA0300294630BD21FA14
:1004600004F0294630BD94F0000F83F4801306BFDA
:1004700081F480110134013D4EE77FEA645C18BFCE
:100480007FEA655C29D094EA050F08BF90EA020F65
:1004900005D054EA000C04BF1946104630BD91EA5D
:1004A000030F1EBF0021002030BD5FEA545C05D160
:1004B0004000494128BF41F0004130BD14F580049F
:1004C0003CBF01F5801130BD01F0004545F0FE4113
:1004D00041F470014FF0000030BD7FEA645C1ABF48
:1004E000194610467FEA655C1CBF0B46024650EA7F
:1004F000013406BF52EA033591EA030F41F40021AB
:1005000030BD00BF90F0000F04BF0021704730B530
:100510004FF4806404F132044FF000054FF0000105
:1005200050E700BF90F0000F04BF0021704730B5C6
:100530004FF4806404F1320410F0004548BF40429B
:100540004FF000013EE700BF42004FEAE2014FEAF0
:1005500031014FEA02701FBF12F07F4393F07F4FCB
:1005600081F06051704732F07F4208BF704793F0CE
:100570007F4F04BF41F40021704730B54FF46074E1
:1005800001F0004521F000411CE700BF50EA0102E4
:1005900008BF704730B54FF000050AE050EA01028D
:1005A00008BF704730B511F0004502D5404261EBFD
:1005B00041014FF4806404F132045FEA915C3FF43E
:1005C000D8AE4FF003025FEADC0C18BF03325FEADB
:1005D000DC0C18BF033202EBDC02C2F1200300FA8C
:1005E00003FC20FA02F001FA03FE40EA0E0021FAB1
:1005F00002F11444BDE600BF70B54FF0FF0C4CF49F
:10060000E06C1CEA11541DBF1CEA135594EA0C0F50
:1006100095EA0C0F00F0DEF82C4481EA030621EA8B
:100620004C5123EA4C5350EA013518BF52EA0335C6
:1006300041F4801143F4801338D0A0FB02CE4FF078
:100640000005E1FB02E506F00042E0FB03E54FF0A8
:100650000006E1FB03569CF0000F18BF4EF0010EA0
:10066000A4F1FF04B6F5007F64F5407404D25FEA9C
:100670004E0E6D4146EB060642EAC62141EA55514F
:100680004FEAC52040EA5E504FEACE2EB4F1FD0C91
:1006900088BFBCF5E06F1ED8BEF1004F08BF5FEA0F
:1006A000500E50F1000041EB045170BD06F00046C1
:1006B00046EA010140EA020081EA0301B4EB5C046E
:1006C000C2BFD4EB0C0541EA045170BD41F4801166
:1006D0004FF0000E013C00F3AB8014F1360FDEBF8B
:1006E000002001F0004170BDC4F10004203C35DA67
:1006F0000C341BDC04F11404C4F1200500FA05F3EA
:1007000020FA04F001FA05F240EA020001F000428A
:1007100021F0004110EBD37021FA04F642EB060100
:100720005EEA430E08BF20EAD37070BDC4F10C042A
:10073000C4F1200500FA04F320FA05F001FA04F2EE
:1007400040EA020001F0004110EBD37041F10001DA
:100750005EEA430E08BF20EAD37070BDC4F12005E5
:1007600000FA05F24EEA020E20FA04F301FA05F24D
:1007700043EA020321FA04F001F0004121FA04F2F5
:1007800020EA020000EBD3705EEA430E08BF20EAC5
:10079000D37070BD94F0000F0FD101F000464000FF
:1007A00041EB010111F4801F08BF013CF7D041EA81
:1007B000060195F0000F18BF704703F00046520085
:1007C00043EB030313F4801F08BF013DF7D043EA56
:1007D0000603704794EA0C0F0CEA135518BF95EA0C
:1007E0000C0F0CD050EA410618BF52EA4306D1D193
:1007F00081EA030101F000414FF0000070BD50EAB2
:10080000410606BF1046194652EA430619D094EA3B
:100810000C0F02D150EA013613D195EA0C0F05D125
:1008200052EA03361CBF104619460AD181EA030179
:1008300001F0004141F0FE4141F470014FF0000031
:1008400070BD41F0FE4141F4780170BD70B54FF0CC
:10085000FF0C4CF4E06C1CEA11541DBF1CEA13554C
:1008600094EA0C0F95EA0C0F00F0A7F8A4EB05042E
:1008700081EA030E52EA03354FEA013100F0888025
:100880004FEA03334FF0805545EA131343EA1263EE
:100890004FEA022245EA111545EA10654FEA0026A3
:1008A0000EF000419D4208BF964244F1FD0404F55C
:1008B000407402D25B084FEA3202B61A65EB0305B8
:1008C0005B084FEA32024FF480104FF4002CB6EB75
:1008D000020E75EB030E22BFB61A754640EA0C00F5
:1008E0005B084FEA3202B6EB020E75EB030E22BF35
:1008F000B61A754640EA5C005B084FEA3202B6EB76
:10090000020E75EB030E22BFB61A754640EA9C0034
:100910005B084FEA3202B6EB020E75EB030E22BF04
:10092000B61A754640EADC0055EA060E18D04FEAC2
:10093000051545EA16754FEA06164FEAC30343EA62
:1009400052734FEAC2025FEA1C1CC0D111F4801F2F
:100950000BD141EA00014FF000004FF0004CB6E728
:1009600011F4801F04BF01430020B4F1FD0C88BFC7
:10097000BCF5E06F3FF6AFAEB5EB030C04BFB6EBD2
:10098000020C5FEA500C50F1000041EB045170BDC5
:100990000EF0004E4EEA113114EB5C04C2BFD4EBF2
:1009A0000C0541EA045170BD41F480114FF0000E76
:1009B000013C90E645EA060E8DE60CEA135594EAF2
:1009C0000C0F08BF95EA0C0F3FF43BAF94EA0C0FF5
:1009D0000AD150EA01347FF434AF95EA0C0F7FF46A
:1009E00025AF104619462CE795EA0C0F06D152EABE
:1009F00003353FF4FDAE1046194622E750EA4106A2
:100A000018BF52EA43067FF4C5AE50EA41047FF4B2
:100A10000DAF52EA43057FF4EBAE12E74FF0FF3C17
:100A200006E000BF4FF0010C02E000BF4FF0010CE8
:100A30004DF804CD4FEA410C7FEA6C5C4FEA430C61
:100A400018BF7FEA6C5C1BD001B050EA410C0CBFB0
:100A500052EA430C91EA030F02BF90EA020F002012
:100A6000704710F1000F91EA030F58BF994208BF79
:100A700090422CBFD8176FEAE37040F00100704736
:100A80004FEA410C7FEA6C5C02D150EA013C07D18D
:100A90004FEA430C7FEA6C5CD6D152EA033CD3D0D8
:100AA0005DF8040B704700BF8446104662468C46D2
:100AB0001946634600E000BF01B5FFF7B7FF002805
:100AC00048BF10F1000F01BD4DF808EDFFF7F4FF2E
:100AD0000CBF012000205DF808FB00BF4DF808EDB9
:100AE000FFF7EAFF34BF012000205DF808FB00BFDC
:100AF0004DF808EDFFF7E0FF94BF012000205DF8FE
:100B000008FB00BF4DF808EDFFF7CEFF94BF0120B2
:100B100000205DF808FB00BF4DF808EDFFF7C4FFAB
:100B200034BF012000205DF808FB00BF4FEA410CF4
:100B30007FEA6C5C02D150EA013C0AD14FEA430CD7
:100B40007FEA6C5C02D152EA033C02D14FF0000014
:100B500070474FF0010070474FEA410212F5001252
:100B600015D211D56FF47873B3EB625212D94FEAF4
:100B7000C12343F0004343EA505311F0004F23FADE
:100B800002F018BF404270474FF00000704750EA33
:100B9000013005D111F0004008BF6FF000407047F0
:100BA0004FF00000704700BF80B582B000AF002357
:100BB000FB715AE0FB79314A128891B2304A22F82F
:100BC0001310FB792F4A32F813202F4B1B889A42BF
:100BD0000FD3FB792A4A32F81330092B09D9FB7954
:100BE000274A32F81320FB790A3A91B2244A22F8B4
:100BF0001310FB79234A32F8133040F6D762934240
:100C00002BD90021214808F001FE04211F4808F0DB
:100C1000FDFD00211E4808F0F9FD00211D4808F0E7
:100C2000F5FD002119480AF01FFA042117480AF0BF
:100C30001BFA002116480AF017FA002115480AF09D
:100C400013FA0F4B0A221A800D4B0A225A800C4BC2
:100C50000A229A800A4B0A22DA80FB79084A32F883
:100C60001330092BFB790133FB71FB79032BA1D9DD
:100C700000BF00BF0837BD4680BD00BF2E07002063
:100C8000000000200407002008000020A40300202A
:100C9000D40400202005002080B586B002AF0346B2
:100CA0000A46FB711346BB71FB791B01DBB2FB7378
:100CB000FA7BBB791343DBB2FB73164B1B78DB006B
:100CC0005AB2FB7B5BB213435BB2DBB2FB73FB7BC1
:100CD00043F00403DBB2FB7307F10F0264230093BC
:100CE00001234E210C4805F029FF012003F05AFA98
:100CF000FB7B23F00403DBB2FB7307F10F026423D9
:100D0000009301234E21044805F018FF00BF10375F
:100D1000BD4680BD0A0000203003002080B584B0AD
:100D200000AF0346FB71FB791B09FB73FB7903F0F2
:100D30000F03BB73FB7B00211846FFF7ADFFBB7BA6
:100D400000211846FFF7A8FFFB79012B02D0FB79A1
:100D5000022B02D1022003F025FA00BF1037BD4656
:100D600080BD80B584B000AF0346FB71FB791B09E1
:100D7000FB73FB7903F00F03BB73FB7B0121184668
:100D8000FFF78AFFBB7B01211846FFF785FF00BFF5
:100D90001037BD4680BD80B500AF322003F002FAA7
:100DA00000210320FFF778FF052003F0FBF9002165
:100DB0000320FFF771FF012003F0F4F90021032065
:100DC000FFF76AFF012003F0EDF900210220FFF791
:100DD00063FF2820FFF7A2FF0C20FFF79FFF0620EC
:100DE000FFF79CFF0120FFF799FF022003F0DAF9DB
:100DF00000BF80BD80B582B000AF786006E07B6840
:100E00005A1C7A601B781846FFF7ABFF7B681B788B
:100E1000002BF4D100BF00BF0837BD4680BD0000E5
:100E200080B584B000AF03460A46FB711346BB7120
:100E3000FB79013B032B17D801A252F823F000BF26
:100E4000510E0008570E00085D0E0008630E0008E2
:100E50008023FB730AE0C023FB7307E09423FB733A
:100E600004E0D423FB7301E08023FB73FA7BBB799E
:100E70001344FB73FB7B63F07F03DBB21846FFF781
:100E80004DFF00BF1037BD4680BD00BF80B500AF2D
:100E90000120FFF743FF022003F084F900BF80BD6B
:100EA00080B584B000AF78600B467B807B681B68A0
:100EB0003D4A934274D13D4B1A783D4B1B789A4280
:100EC00061D13A4B5B78FB73FB7B013B0F2B59D80D
:100ED00001A252F823F000BF850F0008190F000887
:100EE000850F0008230F0008850F00082D0F00084C
:100EF000850F0008850F0008850F0008850F000882
:100F0000850F0008850F0008850F0008850F000871
:100F1000850F00083F0F0008FF21264802F030FA35
:100F200031E02549234802F0ADF92CE0234921485E
:100F300002F09EFA214B5A88214B1A8023E01F4968
:100F40001C4802F095FA1D4B5A881D4B1A801B4B0A
:100F50009A881C4B1A80194BDB881B0A9BB2DAB2A9
:100F6000194B1A70154BDB88DAB2174B5A70134BBA
:100F70001B89DAB2144B9A7001221349134807F007
:100F800098FF00E000BF182208490A480BF027FC30
:100F90000F4B1B681A680E4B1B6822F004021A6084
:100FA00000BF1037BD4680BD0044004068070020E8
:100FB0000B000020F405002080080020C00800205D
:100FC0002E07002008000020E808002084030020ED
:100FD0007C06002080B485B000AF78600023FB73EE
:100FE0007B681B785BB203F001035AB297F90F30AC
:100FF00013435BB2FB737B6801331B785B005BB20E
:1010000003F002035AB297F90F3013435BB2FB733C
:101010007B6802331B789B005BB203F004035AB277
:1010200097F90F3013435BB2FB73FB7B1846143701
:10103000BD465DF8047B704780B485B000AF786032
:101040000023FB730023BB7311E0BB7B7A6813445E
:101050001B7803F00102BB7B02FA03F35AB297F943
:101060000F3013435BB2FB73BB7B0133BB73BB7BA2
:10107000072BEAD9FB7B18461437BD465DF8047B85
:101080007047000080B500AF0021074809F0ECFF71
:101090000021054808F0BAFA01224FF480510348B4
:1010A00005F08CFC00BF80BD200500200004004836
:1010B00080B500AF0021074808F0A8FB00210548D3
:1010C00009F01EFF01224FF48051034805F076FC21
:1010D00000BF80BD200500200004004880B500AF9F
:1010E00000224FF48051064805F068FC00210548B5
:1010F00008F08CFB0021034809F0B6FF00BF80BD5B
:10110000000400482005002080B500AF04210748F6
:1011100009F0AAFF0421054808F078FA01224FF4EB
:101120008061034805F04AFC00BF80BDA403002095
:101130000004004880B500AF0421074808F066FBB2
:101140000421054809F0DCFE01224FF480610348C8
:1011500005F034FC00BF80BDA4030020000400485B
:1011600080B500AF00224FF48061064805F026FCF0
:101170000421054808F04AFB0421034809F074FFE4
:1011800000BF80BD00040048A403002080B500AF6C
:101190000021074809F068FF0021054808F036FAE9
:1011A00001224FF40051034805F008FC00BF80BD48
:1011B000D40400200004004880B500AF0021074897
:1011C00008F024FB0021054809F09AFE01224FF4A3
:1011D0000051034805F0F2FB00BF80BDD40400209D
:1011E0000004004880B500AF00224FF400510648CB
:1011F00005F0E4FB0021054808F008FB0021034846
:1012000009F032FF00BF80BD00040048D404002074
:1012100080B582B000AF0346FB71FB79013B052B23
:1012200038D801A252F823F0411200084F120008EA
:101230005D1200086B12000879120008871200087E
:10124000FFF720FFFFF78CFFFFF7B6FF23E0FFF764
:101250002FFFFFF759FFFFF7C5FF1CE0FFF73EFF29
:10126000FFF752FFFFF7A8FF15E0FFF737FFFFF783
:1012700061FFFFF78BFF0EE0FFF704FFFFF75AFF58
:10128000FFF7B0FF07E0FFF713FFFFF769FFFFF776
:101290007DFF00E000BF00BF0837BD4680BD00BF36
:1012A000B0B58AB002AF02F017FF00F0DFFE01F028
:1012B00021FD01F0E5FC00F0B5FF01F055F901F06A
:1012C0000DFA01F07DFC01F0ABFC01F027FB01F011
:1012D000B1F801F0EFF801F0CFFB00F033FF01F0BF
:1012E00039F801F07DFA01F0CBFA01224FF4004108
:1012F000524805F063FB01220121514805F05EFBD5
:10130000012202214E4805F059FB01224FF4806171
:101310004FF0904005F052FB4A4B1A884A4B5A63F3
:10132000484B5A88484B9A63464B9A88474B5A63B6
:10133000444BDA88464B5A630021464808F066F968
:101340000421444808F062F90021434808F05EF99E
:101350000021424808F05AF90021414808F04EFBAC
:1013600004213F4808F04AFB3E4808F083F8012278
:101370004FF400613C4805F021FB01224FF48061ED
:10138000394805F01BFB01224FF48051364805F027
:1013900015FB01224FF40051334805F00FFB0521E6
:1013A000324803F0E1FF0421314803F0DDFF022160
:1013B000304803F0D9FF304B01221A702F4BBB612C
:1013C00005222F49294803F05DFB10222D492E48A4
:1013D0000BF005FA2D4B1B681A682C4B1B6822F08A
:1013E00004021A6000224FF480614FF0904005F033
:1013F000E5FA4FF4FA7002F0D5FE00224FF40041F6
:101400000E4805F0DBFA002201210D4805F0D6FA5E
:10141000002202210A4805F0D1FA4FF0FF33009371
:1014200001231B4A48211B4805F07CFC3B1D002280
:101430001A605A600023FB7743E000BF00080048B1
:101440000014004800000020002C0140003401403E
:1014500000400140A4030020D40400202005002007
:10146000F00300203C040020000400484C0200204F
:10147000FC0100209C02002031070020A8F5000894
:101480000C07002068070020F40500207C060020DF
:1014900028070020300300209B4B1B781A46FB7F57
:1014A000C3F1070342FA03F303F00103002B05D154
:1014B000FB7F20333B44012203F81C2CFB7F0133CC
:1014C000FB77FB7F072BE7D9FB7A002B25D08F4BCF
:1014D0001B7883F00103DBB2002B1ED08C4B1B78F2
:1014E00083F00103DBB2002B17D08A4B1B7883F00B
:1014F0000103DBB2002B10D0874B01221A70834B03
:1015000001221A70854B01221A70814B01221A7038
:1015100002F03CFE0346824A1360FB7A002B16D091
:101520007A4B1B78002B12D0794B1B78002B0ED0F6
:10153000784B1B7883F00103DBB2002B07D002F05D
:1015400025FE0346764A1360724B01221A70FB7A1D
:10155000002B18D06D4B1B78002B14D06C4B1B78D4
:10156000002B10D06B4B1B78002B0CD002F00EFE22
:1015700002466B4B1B68D31A40F6B732934202D92E
:10158000634B00221A70FB7A002B15D05F4B1B783F
:10159000002B11D05E4B1B7883F00103DBB2002BD4
:1015A0000AD05A4B00221A705C4B00221A7002F0CB
:1015B000EDFD03465A4A1360FB7A83F00103DBB268
:1015C000002B11D0514B1B7883F00103DBB2002BB1
:1015D0000AD002F0DBFD0246514B1B68D31A632B85
:1015E00002D94C4B00221A70BB7A002B1ED04D4BF7
:1015F0001B7883F00103DBB2002B17D002F0C6FD8D
:101600000346474A1360474B01221A70464B01229A
:101610001A70464B1B780133DAB2444B1A70434BB5
:101620001B78032B02D9414B00221A70BB7A002B86
:1016300021D03C4B1B78002B1DD002F0A7FD0246A9
:10164000374B1B68D31AB3F5FA6F14D3364B01220C
:101650001A70364B1B780133DAB2344B1A70334BA5
:101660001B78032B02D9314B00221A7002F08EFD39
:1016700003462B4A1360BB7A83F00103DBB2002BD5
:101680000BD0284B1B78002B07D002F07FFD0346C0
:10169000234A1360234B00221A707B7A002B6ED0F2
:1016A000234B1B7883F00103DBB2002B67D002F0E1
:1016B0006DFD03461A4A13601D4B01221A701D4B23
:1016C0001B881C4B1B889BB2132B43D81A4B1B78CF
:1016D000002B3FD100221949194807F084FC002251
:1016E0001849174807F061FD144B1A78164B1A7009
:1016F000124B5A78154B1A70104B9A78144B1A707B
:101700000D4B01221A7025E0280700201607002043
:10171000180700201C0700201707002020070020C2
:10172000E40800201B070020400700203F0700209E
:101730001A0700202E07002047070020E808002095
:1017400084030020FC0800204507002044070020F7
:1017500046070020984B1B889BB20A339AB2964BDF
:101760001A80954B1B889BB240F2CE72934203D9EC
:10177000914B4FF4FA621A80904B04221A707B7AD4
:10178000002B25D08E4B1B78002B21D002F0FEFCC5
:1017900002468C4B1B68D31A952B19D9864B1B8894
:1017A0009BB20A339AB2844B1A80834B1B889BB23C
:1017B00040F2CE72934203D97F4B4FF4FA621A8003
:1017C0007E4B04221A7002F0E1FC03467D4A13604E
:1017D0007B7A83F00103DBB2002B0BD0784B1B78B4
:1017E000002B07D002F0D2FC0346764A1360744BFC
:1017F00000221A703B7A002B3FD0734B1B7883F08A
:101800000103DBB2002B38D002F0C0FC03466D4A66
:1018100013606D4B01221A70674B1B889BB2002B23
:101820000FD16A4B1B78012B0BD1684B00221A7029
:10183000674B00221A70674B00221A70664B002219
:101840001A705D4B1B889BB20A3B9AB25A4B1A80A6
:10185000594B1B889BB240F63302934202D9564B38
:1018600000221A80544B1B889BB2022B02D8524B89
:1018700000221A80514B04221A703B7A002B41D06F
:10188000514B1B78002B3DD002F080FC02464D4BA3
:101890001B68D31A952B35D9474B1B889BB2002B5D
:1018A0000FD14A4B1B78012B0BD1484B00221A70E9
:1018B000474B00221A70474B00221A70464B0022F9
:1018C0001A703D4B1B889BB20A3B9AB23A4B1A8066
:1018D000394B1B889BB240F63302934202D9364BF8
:1018E00000221A80344B1B889BB2012B02D8324B4A
:1018F00000221A80314B04221A7002F047FC034682
:10190000304A13603B7A83F00103DBB2002B0BD02B
:101910002D4B1B78002B07D002F038FC0346294AD8
:101920001360294B00221A70FB79002B02D0224B46
:1019300000221A80254B1B78002B0CBF01230023AB
:10194000DAB2264B5A702548FFF776FB03461A4653
:10195000234B1A704FF0FF3300930123204A40219C
:10196000204805F0EBF8204B1B78DBB2012B7FF40D
:1019700054AD1E4803F0A2F91D4B1A881D4B1A8066
:101980001B4B5A881B4B5A80194B9A88194B9A80CB
:10199000174BDA88174BDA80154B1A89164B1A80C9
:1019A000164802F021FE3221144802F069FF144B60
:1019B00000221A8026E000BF2E07002030070020FA
:1019C0001A070020E408002019070020470700201C
:1019D000450700204407002046070020200700207C
:1019E0002C07002030030020310700204C0200208B
:1019F0000C0700200407002048070020FC010020FD
:101A00004A070020A84803F0BBF903469AB2A74B47
:101A10001A80A54802F0FEFEA54B1B88A3F5436380
:101A20001846FEF77FFD4FF00002A24BFEF70EFFB7
:101A300002460B46A049C1E900239C4B1B8818466F
:101A4000FEF770FD94A3D3E90023FEF7D5FD02460F
:101A50000B461046194692A3D3E90023FEF7CCFDAE
:101A600002460B46104619464FF00002934BFEF714
:101A7000EDFE02460B469249C1E90023002291493E
:101A8000914807F0B0FA914B1A88914B1A808F4B0E
:101A90005A888F4B5A808D4B9A888D4B9A808B4BEE
:101AA000DA888B4BDA808B4B1A88894B1A81894BE9
:101AB0005A88874B5A81874B9A88854B9A81854BE8
:101AC000DA88834BDA81844B1A88814B1A82834BE4
:101AD0001A887F4B5A82824B1A887D4B9A82814B9F
:101AE0001B789AB27A4BDA82704B1A88784B1A8339
:101AF0006F4B1A88764B5A83724B1B781B021AB2B3
:101B0000704B5B781BB213431BB29AB2704B9A8333
:101B10006C4B9B789AB26E4BDA83734B1B7883F0D5
:101B20000103DBB2002B0DD0704B1B78012B09D1C8
:101B3000FFF731F9642002F035FBFFF7A7F96B4B93
:101B400000221A70684B1B78002B0AD0674B1B7859
:101B5000012B06D1FFF71FF9FFF798F9634B00221D
:101B60001A70614B1B78002B00F03482604B1B789D
:101B70000133DAB25E4B1A705E4B1B78012B04D135
:101B8000FFF784F95B4B00221A705B4B1B78002B2C
:101B900054D1574B1B78142B50D14F4B1B881A46EE
:101BA00007F10C03554918460BF096FB0021012064
:101BB000FFF736F907F10C031846FFF71BF9504BF6
:101BC0001B889BB219464E4B1B889BB24D4AA2FB09
:101BD00003231B099BB207F10C000A464A490BF08C
:101BE0007BFB00210220FFF71BF907F10C031846CD
:101BF000FFF700F9454B1B881A4607F10C034449CF
:101C000018460BF069FB00210320FFF709F907F1E3
:101C10000C031846FFF7EEF8304B1B881A4607F105
:101C20000C033C4918460BF057FB00210420FFF73A
:101C3000F7F807F10C031846FFF7DCF82E4B1B787A
:101C4000022B40F0BC802A4B1B78162B40F0B7804B
:101C500000221C491C4807F0C6F900222E491A48E8
:101C600007F0A3FA2D4B1B781A462D4B1B7819460B
:101C70002C4B1B7807F10C0000930B462A490BF004
:101C80002BFB00210120FFF7CBF807F10C031846CE
:101C9000FFF7B0F84AE000BF6666666666C6584061
:101CA0008FC2F5285C8F0A40FC0100204A07002003
:101CB0004807002000803040580700200000C04046
:101CC00050070020E80800208403002004070020BB
:101CD00080080020000000203A0700203C07002078
:101CE000080000200B000020160700201707002026
:101CF0003E070020400700203F070020ACF5000809
:101D00002E070020CDCCCCCCC0F500084207002027
:101D1000D8F50008E8F50008FC0800204507002079
:101D20004407002046070020F4F50008B74B1B7855
:101D30001A46B64B5B781946B44B9B7807F10C00FA
:101D400000930B46B2490BF0C7FA00210220FFF7BF
:101D500067F807F10C031846FFF74CF8AD4BD3E9D1
:101D60000001AD4BD3E90023FEF746FC02460B46CB
:101D700007F10C00A9490BF0AFFA00210320FFF78F
:101D80004FF807F10C031846FFF734F8A14BD3E9DD
:101D90000001A14BD3E9002307F10C04CDE9002396
:101DA00002460B469E4920460BF096FA002104207D
:101DB000FFF736F807F10C031846FFF71BF8994BAD
:101DC0001B78032B4ED1984B1B78182B4AD1974B7D
:101DD0001B881A46964B1B8807F10C0095490BF09F
:101DE0007BFA00210120FFF71BF807F10C031846CE
:101DF000FFF700F8904BD3E90045864BD3E900018B
:101E0000854BD3E90023FEF7F7FB02460B4607F1AB
:101E10000C00CDE9002322462B4688490BF05CFAE2
:101E200000210320FEF7FCFF07F10C031846FEF724
:101E3000E1FF784BD3E90001774BD3E9002307F1A9
:101E40000C04CDE9002302460B46754920460BF0F1
:101E500043FA00210420FEF7E3FF07F10C031846C4
:101E6000FEF7C8FF6F4B1B78012B40F0B3806E4B21
:101E70001B78122B5FD1724B1B88724AA2FB032383
:101E80001B099BB21A466E4B1B8807F10C006E496A
:101E90000BF022FA00210120FEF7C2FF07F10C032C
:101EA0001846FEF7A7FF664B5B88664AA2FB032332
:101EB0001B099BB21A46624B5B8807F10C00624912
:101EC0000BF00AFA00210220FEF7AAFF07F10C032B
:101ED0001846FEF78FFF5A4B9B885A4AA2FB0323F2
:101EE0001B099BB21A46564B9B8807F10C005649BA
:101EF0000BF0F2F900210320FEF792FF07F10C032B
:101F00001846FEF777FF4E4BDB884E4AA2FB0323B1
:101F10001B099BB21A464A4BDB8807F10C004A4961
:101F20000BF0DAF900210420FEF77AFF07F10C0329
:101F30001846FEF75FFF3C4B1B78B32B4AD9434B47
:101F40001B881A4607F10C03414918460BF0C4F9E7
:101F50000D210120FEF764FF07F10C031846FEF780
:101F600049FF3A4B5B881A4607F10C03384918467B
:101F70000BF0B2F90D210220FEF752FF07F10C031E
:101F80001846FEF737FF314B9B881A4607F10C03C2
:101F90002F4918460BF0A0F90D210320FEF740FF52
:101FA00007F10C031846FEF725FF284BDB881A467D
:101FB00007F10C03264918460BF08EF90D21042079
:101FC000FEF72EFF07F10C031846FEF713FF164B22
:101FD00000221A70FEF7E8FD194B1A881D4B5A6350
:101FE000174B5A881B4B9A63154B9A881A4B5A63A6
:101FF000134BDA88194B5A63194B00221A700522C9
:102000001849194802F03EFDFFF707BAE80800201A
:1020100010F60008500700205807002024F600089A
:1020200030F600083F0700203E0700204A07002046
:102030004807002044F60008600700205CF600080E
:1020400000000020CDCCCCCC70F6000804070020A6
:1020500080F60008002C014000340140004001409F
:10206000310700200C0700204C02002080B59EB0F4
:1020700000AF07F150032822002118460BF08FF91A
:1020800007F13C0300221A605A609A60DA601A6114
:102090003B463C22002118460BF081F90A233B65A0
:1020A00001233B6610237B660123BB660223FB668C
:1020B00000233B674FF460137B6707F1500318461A
:1020C00005F050FA0346002B01D001F055F80F231C
:1020D000FB6302233B6400237B644FF48063BB6497
:1020E0000023FB6407F13C030221184606F078FA4E
:1020F0000346002B01D001F03FF8114B3B60002359
:10210000BB600023FB604FF480737B624FF400538D
:10211000BB620023FB614FF400737B6000233B63D1
:1021200000237B633B46184606F090FC0346002BD9
:1021300001D001F021F800BF7837BD4680BD00BF57
:10214000A331010080B58AB000AF07F11C03002263
:102150001A605A609A603B1D00221A605A609A60A9
:10216000DA601A615A612E4B4FF0A0421A602C4B74
:1021700000225A602A4B00229A60294B00221A61E1
:10218000274B00225A76264B002283F82020244B2E
:102190000022DA62224B01229A62214B0022DA608D
:1021A0001F4B0122DA611E4B002283F830201C4BAA
:1021B00004225A611A4B00221A76194B00225A63E4
:1021C000174802F031F80346002B01D000F0D4FF8D
:1021D0000023FB6107F11C031946114803F048FC7A
:1021E0000346002B01D000F0C7FF04237B600123CE
:1021F000BB6000233B610423FB6000237B61002361
:10220000BB613B1D1946064803F048F90346002B05
:1022100001D000F0B1FF00BF2837BD4680BD00BF30
:10222000FC01002080B586B000AF3B4600221A605A
:102230005A609A60DA601A615A61444B444A1A60E3
:10224000424B00225A60414B00229A603F4B0122D0
:102250001A613E4B01225A763C4B002283F8202023
:102260003A4B0022DA62394B01229A62374B002244
:10227000DA60364B0522DA61344B002283F83020D5
:10228000324B04225A61314B00221A762F4B002226
:102290005A632E4801F0C8FF0346002B01D000F01E
:1022A0006BFF01233B6001237B600023FB60022363
:1022B000BB6000233B6100237B613B4619462348FA
:1022C00003F0ECF80346002B01D000F055FF022389
:1022D0003B6002237B603B4619461C4803F0DEF856
:1022E0000346002B01D000F047FF03233B6003238C
:1022F0007B603B461946154803F0D0F80346002B97
:1023000001D000F039FF04233B6004237B603B468F
:1023100019460E4803F0C2F80346002B01D000F026
:102320002BFF0C233B6005237B600523BB603B46F2
:102330001946064803F0B2F80346002B01D000F01E
:102340001BFF00BF1837BD4680BD00BF4C020020F8
:102350000001005080B58AB000AF07F11C030022D5
:102360001A605A609A603B1D00221A605A609A6097
:10237000DA601A615A612D4B2D4A1A602B4B0022EC
:102380005A602A4B00229A60284B00221A61274B80
:1023900000225A76254B002283F82020234B00226E
:1023A000DA62224B01229A62204B0022DA601F4B34
:1023B0000122DA611D4B002283F830201B4B0422DE
:1023C0005A611A4B00221A76184B00225A6317489A
:1023D00001F02AFF0346002B01D000F0CDFE0023C0
:1023E000FB6107F11C031946104803F041FB03464B
:1023F000002B01D000F0C0FE01237B600123BB60F5
:1024000000233B610223FB6000237B610023BB614F
:102410003B1D1946054803F041F80346002B01D047
:1024200000F0AAFE00BF2837BD4680BD9C020020F8
:102430000004005080B500AF1B4B1C4A1A601A4BB9
:102440001B4A5A60184B24229A60174B0122DA600B
:10245000154B00221A61144B00225A61124B0022C4
:102460009A61114B0022DA610F4B00221A620E486A
:1024700004F0D4FA0346002B01D000F07DFE0021C9
:10248000094804F0D7FF0346002B01D000F074FE8A
:102490000021054805F019F80346002B01D000F093
:1024A0006BFE00BF80BD00BF300300200054004021
:1024B0000E09002080B586B000AF3B1D00221A60D7
:1024C0005A609A60DA601A6100233B60244B254A07
:1024D0001A60234B00225A60214B7F229A60204BC6
:1024E00040F23712DA601E4B00221A611C4B0022A8
:1024F0005A611B4B00229A61194806F057FC0346AB
:10250000002B01D000F038FE09233B7100237B71C2
:102510000023BB7100233B6100237B613B1D012233
:1025200019460F4806F0C5FC0346002B01D000F009
:1025300023FE01233B7006237B700123BB70002325
:10254000FB703B4601221946054806F0AAFD0346EA
:10255000002B01D000F010FE00BF1837BD4680BD33
:10256000840300200028004080B59AB000AF07F136
:10257000580300221A605A609A60DA6007F14C032F
:1025800000221A605A609A6007F1300300221A6034
:102590005A609A60DA601A615A619A613B1D2C2276
:1025A000002118460AF0FBFE4A4B4B4A1A60494B81
:1025B00000225A60474B00229A60464B4FF4FA6261
:1025C000DA60444B00221A61424B00225A61414BAF
:1025D00080229A613F4806F0F5FE0346002B01D0A9
:1025E00000F0CAFD4FF48053BB6507F1580319464C
:1025F000384807F015FE0346002B01D000F0BCFD63
:10260000344806F0A1FF0346002B01D000F0B4FDD2
:102610000023FB6400233B6500237B6507F14C032B
:1026200019462C4808F07EFD0346002B01D000F02F
:10263000A3FD60233B634FF47A737B630023BB638A
:102640000023FB6304233B6400237B640023BB64FF
:1026500007F13003002219461E4807F0CDFC03465F
:10266000002B01D000F088FD07F130030422194649
:10267000184807F0C1FC0346002B01D000F07CFD98
:1026800000237B600023BB600023FB6064233B616D
:1026900000237B614FF40053BB610023FB610023E7
:1026A0003B624FF000737B620023BB620023FB623E
:1026B0003B1D1946074808F0B5FD0346002B01D025
:1026C00000F05AFD034801F0C5F900BF6837BD4668
:1026D00080BD00BFA4030020002C014080B58CB059
:1026E00000AF07F1200300221A605A609A60DA6096
:1026F00007F1140300221A605A609A603B1D002201
:102700001A605A609A60DA60334B4FF080421A6068
:10271000314B00225A60304B00229A602E4B2F4AD8
:10272000DA602D4B00221A612B4B00229A612A4855
:1027300006F048FE0346002B01D000F01DFD4FF4CB
:1027400080533B6207F120031946234807F068FDD8
:102750000346002B01D000F00FFD1F4807F0ECF8F6
:102760000346002B01D000F007FD00237B6100230E
:10277000FB6107F114031946174808F0D3FC034620
:10278000002B01D000F0F8FC00237B600123BB602C
:102790000023FB600C233B613B1D002219460E48C1
:1027A00007F08DFB0346002B01D000F0E5FC02236F
:1027B0007B600223BB6000233B613B1D0422194662
:1027C000054807F07CFB0346002B01D000F0D4FC49
:1027D00000BF3037BD4680BDF00300200090D0031D
:1027E00080B588B000AF07F1100300221A605A606C
:1027F0009A60DA603B1D00221A605A609A601E4B94
:102800001E4A1A601C4B40F2E7325A601A4B0022F3
:102810009A60194B4FF47A42DA60174B00221A6122
:10282000154B80229A61144806F0CCFD0346002B1C
:1028300001D000F0A1FC4FF480533B6107F110037D
:1028400019460D4807F0ECFC0346002B01D000F0C0
:1028500093FC00237B600023FB603B1D1946064868
:1028600008F060FC0346002B01D000F085FC00BF9F
:102870002037BD4680BD00BF3C040020000400405E
:1028800080B588B000AF07F1100300221A605A60CB
:102890009A60DA603B1D00221A605A609A601D4BF4
:1028A0001D4A1A601B4B00225A601A4B00229A6084
:1028B000184B4FF6FF72DA60164B00221A61154B67
:1028C00080229A61134806F07DFD0346002B01D05B
:1028D00000F052FC4FF480533B6107F1100319469E
:1028E0000C4807F09DFC0346002B01D000F044FC8F
:1028F00000237B600023FB603B1D1946054808F060
:1029000011FC0346002B01D000F036FC00BF20373D
:10291000BD4680BD880400200008004080B59AB004
:1029200000AF07F1580300221A605A609A60DA601B
:1029300007F14C0300221A605A609A6007F13003D5
:1029400000221A605A609A60DA601A615A619A61CC
:102950003B1D2C22002118460AF021FD444B454A1C
:102960001A60434B00225A60414B00229A60404B50
:102970004FF4FA62DA603E4B00221A613C4B0022AF
:102980005A613B4B80229A61394806F01BFD034691
:10299000002B01D000F0F0FB4FF48053BB6507F132
:1029A00058031946324807F03BFC0346002B01D080
:1029B00000F0E2FB2E4806F0C7FD0346002B01D0D5
:1029C00000F0DAFB0023FB6400233B6500237B65FA
:1029D00007F14C031946264808F0A4FB0346002BD8
:1029E00001D000F0C9FB60233B634FF47A737B6333
:1029F0000023BB630023FB6300233B6400237B6451
:102A00000023BB6407F1300300221946184807F081
:102A1000F3FA0346002B01D000F0AEFB00237B60ED
:102A20000023BB600023FB6064233B6100237B61C8
:102A30004FF40053BB610023FB6100233B624FF066
:102A400000737B620023BB620023FB623B1D1946BF
:102A5000074808F0E7FB0346002B01D000F08CFB91
:102A6000034800F0F7FF00BF6837BD4680BD00BFD8
:102A7000D40400200034014080B59AB000AF07F1C3
:102A8000580300221A605A609A60DA6007F14C031A
:102A900000221A605A609A6007F1300300221A601F
:102AA0005A609A60DA601A615A619A613B1D2C2261
:102AB000002118460AF073FC3F4B404A1A603E4B17
:102AC00000225A603C4B00229A603B4B4FF4FA6262
:102AD000DA60394B00221A61374B00225A61364BBB
:102AE00080229A61344806F06DFC0346002B01D029
:102AF00000F042FB4FF48053BB6507F158031946C1
:102B00002D4807F08DFB0346002B01D000F034FB6D
:102B1000294806F019FD0346002B01D000F02CFBDC
:102B20000023FB6400237B6507F14C031946224810
:102B300008F0F8FA0346002B01D000F01DFB6023DB
:102B40003B634FF47A737B630023BB630023FB6317
:102B500000233B6400237B640023BB6407F1300344
:102B600000221946144807F047FA0346002B01D00B
:102B700000F002FB00237B600023BB600023FB60AE
:102B800064233B6100237B614FF40053BB6100234E
:102B9000FB610023FB623B1D1946074808F042FB1E
:102BA0000346002B01D000F0E7FA034800F052FF83
:102BB00000BF6837BD4680BD2005002000400140B1
:102BC00080B500AF144B154A1A60134B4FF41652E0
:102BD0005A60114B00229A600F4B0022DA600E4BB4
:102BE00000221A610C4B0C225A610B4B00229A6195
:102BF000094B0022DA61084B00221A62064B0022C0
:102C00005A62054808F0CFFB0346002B01D000F0C4
:102C1000B3FA00BF80BD00BF6C0500200038014042
:102C200080B500AF144B154A1A60134B4FF4613254
:102C30005A60114B00229A600F4B0022DA600E4B53
:102C400000221A610C4B0C225A610B4B00229A6134
:102C5000094B0022DA61084B00221A62064B00225F
:102C60005A62054808F09FFB0346002B01D000F094
:102C700083FA00BF80BD00BFF4050020004400407F
:102C800080B582B000AF1A4B5B69194A43F002036A
:102C90005361174B5B6903F002037B607B68144B45
:102CA0005B69134A43F001035361114B5B6903F005
:102CB00001033B603B6800220021102003F08BFAE7
:102CC000102003F0A4FA00220021112003F083FA5F
:102CD000112003F09CFA00220021382003F07BFA37
:102CE000382003F094FA00BF0837BD4680BD00BF0E
:102CF0000010024080B58AB000AF07F11403002233
:102D00001A605A609A60DA601A61644B5B69634AC0
:102D100043F400235361614B5B6903F400233B617F
:102D20003B695E4B5B695D4A43F4800353615B4BD7
:102D30005B6903F48003FB60FB68584B5B69574A8F
:102D400043F400335361554B5B6903F40033BB60BC
:102D5000BB68524B5B69514A43F4802353614F4B2C
:102D60005B6903F480237B607B6800224FF40041A1
:102D70004B4803F023FE002203214A4803F01EFEC5
:102D800000224FF47051484803F018FE00224FF41F
:102D900080614FF0904003F011FE4FF4C0437B611F
:102DA0004FF44413BB610023FB6107F11403194680
:102DB0003B4803F071FC4FF400437B610123BB618E
:102DC0000023FB6100233B6207F1140319463448DA
:102DD00003F062FC03237B610123BB610023FB61E1
:102DE00000233B6207F1140319462E4803F054FCFC
:102DF00002237B614FF44413BB610023FB6107F1A5
:102E0000140319464FF0904003F046FC4FF4705302
:102E10007B610123BB610023FB6100233B6207F15F
:102E200014031946204803F037FC4FF480637B619C
:102E30000123BB610023FB6100233B6207F1140304
:102E400019464FF0904003F027FC20237B614FF49C
:102E50004413BB610023FB6107F1140319461248B8
:102E600003F01AFC00220421072003F0B4F9072024
:102E700003F0CDF900220021172003F0ACF9172050
:102E800003F0C5F900220021282003F0A4F928202E
:102E900003F0BDF900BF2837BD4680BD00100240D9
:102EA000000800480014004800040048000000002A
:102EB00080B582B000AF78607B681B68144A93428B
:102EC0001ED1144BD3E90001134BD3E90023FDF7C6
:102ED00093FB02460B46104619460BA3D3E9002389
:102EE000FDF7B4FC02460B46104619460B4BD3E9DE
:102EF0000023FDF7CBF902460B460849C1E9002340
:102F000000BF0837BD4680BD000000000020AC4077
:102F100000040040500700205807002060070020F0
:102F200080B582B000AF78607B681B68B3F1804FDA
:102F30002AD17B681B7F012B26D1154B00221A60FA
:102F40004FF0804300225A620021124807F032FA03
:102F500003461A460E4B1A6004210E4807F02AFA5F
:102F600003469AB20C4B1A80094B1B680B4A92FB22
:102F7000F3F39AB20A4B1A80054B1B68094A92FB7D
:102F8000F3F39AB2084B1A8000BF0837BD4680BDE4
:102F900034070020F00300203807002000389C1C74
:102FA0003A0700200048E8013C07002080B582B0C5
:102FB00000AF0346FB80FB88022B09D102214FF0B2
:102FC000904003F0E3FC02214FF0904003F0DEFC60
:102FD000FB88B3F5005F31D14FF400514E4803F048
:102FE000D5FC0346012B0ED1012201214B4803F0F1
:102FF000E5FC4B4B00225A704948FDF7EBFF0346B6
:103000001846FEF705F94FF40051434803F0BEFCA3
:103010000346002B0ED100220121404803F0CEFCD4
:103020003F4B01225A703E48FDF7D4FF0346184635
:10303000FEF7EEF83B4B4FF400525A61FB88B3F5B4
:10304000804F31D14FF48041334803F09FFC034659
:10305000012B0ED101220221304803F0AFFC304B8E
:1030600000229A702E48FDF7B5FF03461846FEF77A
:10307000CFF84FF48041284803F088FC0346002B2A
:103080000ED100220221254803F098FC244B012296
:103090009A702348FDF79EFF03461846FEF7B8F8DE
:1030A000204B4FF480425A61FB88202B30D12021E5
:1030B0001D4803F06BFC0346012B0FD101224FF496
:1030C0000041154803F07AFC154B00221A70144891
:1030D000FDF780FF03461846FEF79AF820211248B4
:1030E00003F054FC0346002B0FD100224FF40041A3
:1030F000094803F063FC0A4B01221A700848FDF7E7
:1031000069FF03461846FEF783F8064B20225A61F2
:1031100000BF0837BD4680BD0008004800140048C5
:10312000E0080020000401400004004880B582B09F
:1031300000AF786000224FF480614FF0904003F0C0
:103140003DFC00BF0837BD4680BD000080B483B0A1
:1031500000AF78607B681B68054A934202D1054B3B
:1031600001221A7000BF0C37BD465DF8047B704722
:10317000000100503107002080B400AF72B600BFDC
:10318000FEE780B487B000AF78600B46FB704FF667
:10319000FF737B610023FB7423E0FB7C7A6813449C
:1031A0001B781A467B6953407B610123BB7412E094
:1031B0007B6903F00103BB607B695B087B61BB68D3
:1031C000002B05D07B6983F4204383F001037B61EE
:1031D000BB7C0133BB74BB7C082BE9D9FB7C01337E
:1031E000FB74FA7CFB789A42D7D37B691B0AFB609D
:1031F0007B691B02FA6813437B617B699BB27B612D
:103200007B699BB218461C37BD465DF8047B70474E
:1032100080B586B000AFF860B9601346FB71FB79EA
:103220001946B868FFF7ADFF0346FB82FB7901330F
:10323000BA681344FA8AD2B21A70FB8A1B0A99B28E
:10324000FB79BA681344CAB21A7001224FF4806144
:103250004FF0904003F0B2FBFB799BB202339BB27C
:103260001A46B968F86808F0EDF80022022104480F
:1032700003F0A4FB00BF18461837BD4680BD00BF51
:103280000014004880B586B000AF78603960394BD3
:103290009B781B021AB2374BDB781BB213431BB26D
:1032A000FB82344B1B791B021AB2324B5B791BB287
:1032B00013431BB27B81FB8AA3F5EA43313BFB82BC
:1032C000FA8A7B8913449BB2013B3B817B897D2B2E
:1032D00005D90321786800F04BF9002345E03B89CC
:1032E0001E2B05D90221786800F042F900233CE04A
:1032F000214B1A78214B1A701E4B5A781F4B5A706B
:103300007B89DBB25B00DAB21C4B9A7003233B6112
:103310000023FB601DE0FB8A5B003A6813441B88B6
:103320001B0A99B23B695A1C3A61C9B2134AD1547B
:10333000FB8A5B003A68134419883B695A1C3A615E
:10334000C9B20E4AD154FB8A0133FB82FB680133B8
:10335000FB607B89FA689A42DDDB3B69DBB21A4687
:1033600006497868FFF754FF012318461837BD4611
:1033700080BD00BF680700200B00002080070020F0
:1033800080B586B000AF78603960364B9B781B0201
:103390001AB2344BDB781BB213431BB2FB82314BA6
:1033A0001B791B021AB22F4B5B791BB213431BB262
:1033B0007B81FA8A7B8913449BB2013B3B817B89E9
:1033C0007D2B05D90321786800F0D2F8002345E071
:1033D0003B891E2B05D90221786800F0C9F800232B
:1033E0003CE0214B1A78214B1A701E4B5A781F4B28
:1033F0005A707B89DBB25B00DAB21C4B9A700323F4
:103400003B610023FB601DE0FB8A5B003A681344CC
:103410001B881B0A99B23B695A1C3A61C9B2134A0C
:10342000D154FB8A5B003A68134419883B695A1CE3
:103430003A61C9B20D4AD154FB8A0133FB82FB6861
:103440000133FB607B89FA689A42DDDB3B69DBB2C2
:103450001A4606497868FFF7DBFE0123184618373D
:10346000BD4680BD680700200B00002080070020BB
:1034700080B586B000AF786039603A4B9B781B020C
:103480001AB2384BDB781BB213431BB2FB82354BAD
:103490001B791B021AB2334B5B791BB213431BB26D
:1034A0007B817B89002B02D07B897B2B05D9032173
:1034B000786800F05DF800234FE0FA8A7B891344B6
:1034C0009BB2013B3B813B891E2B05D902217868C9
:1034D00000F04EF8002340E007233B610023FB602F
:1034E00019E03B695A1C3A611E4AD35C1B021AB2AE
:1034F0003B69591C39611B49CB5C1BB2134319B2A0
:10350000FB8A5A1CFA825B003A6813448AB21A801A
:10351000FB680133FB607B89FA689A42E1DB124B5E
:103520001A78124B1A700F4B5A78104B5A700D4B79
:103530009A780E4B9A700B4BDA780C4BDA70094B79
:103540001A790A4B1A71074B5A79084B5A7106229D
:1035500006497868FFF75CFE012318461837BD4618
:1035600080BD00BF680700200B00002080070020FE
:1035700080B582B000AF78600B46FB700B4B1A78B9
:103580000B4B1A70094B5B7863F07F03DAB2084B80
:103590005A70074AFB789370032205497868FFF751
:1035A00037FE034618460837BD4680BD6807002031
:1035B0008007002080B582B000AF124B9B69114A92
:1035C00043F0010393610F4B9B6903F001037B60A0
:1035D0007B680C4BDB690B4A43F08053D361094B8A
:1035E000DB6903F080533B603B680022002105202B
:1035F00002F0F1FD052002F00AFE00BF0837BD46CB
:1036000080BD00BF0010024080B58EB000AF786072
:1036100007F1240300221A605A609A60DA601A6186
:103620007B681B68B3F1A04F36D1704B1B68013328
:103630006E4A13606D4B1B68012B0BD16C4B5B69A1
:103640006B4A43F080535361694B5B6903F08053CD
:103650003B623B6A664B5B69654A43F400335361E6
:10366000634B5B6903F40033FB61FB6908237B62F6
:103670000323BB620023FB6207F1240319464FF0CA
:10368000904003F009F800220221122002F0A3FD6D
:10369000122002F0BCFDA4E07B681B68554A9342EF
:1036A00076D1524B1B680133504A13604F4B1B6855
:1036B000012B0BD14E4B5B694D4A43F08053536154
:1036C0004B4B5B6903F08053BB61BB69484B5B6943
:1036D000474A43F400335361454B5B6903F40033BD
:1036E0007B617B69424B5B69414A43F480235361B0
:1036F0003F4B5B6903F480233B613B69F0237B62B2
:103700000323BB620023FB6207F1240319464FF039
:10371000904002F0C1FF04237B620323BB620023BD
:10372000FB6207F124031946334802F0B5FF334B1F
:10373000334A1A60314B00225A60304B00229A60A3
:103740002E4B8022DA602D4B4FF480721A612B4B86
:103750004FF480625A61294B00229A61274B002264
:10376000DA61264802F06DFD0346002B01D0FFF719
:1037700003FD7B68214A9A63204A7B6853620022DA
:103780000221122002F027FD122002F040FD28E065
:103790007B681B681B4A934223D1154B5B69144A13
:1037A00043F000535361124B5B6903F00053FB601D
:1037B000FB680F4B5B690E4A43F4802353610C4B4B
:1037C0005B6903F48023BB60BB6803237B62032334
:1037D000BB620023FB6207F124031946064802F08E
:1037E0005BFF00BF3837BD4680BD00BF0009002029
:1037F000001002400001005000040048EC020020CC
:10380000080402400004005080B58AB000AF786020
:1038100007F1140300221A605A609A60DA601A6194
:103820007B681B68174A934228D1174B5B69164A7D
:1038300043F480235361144B5B6903F480233B61A1
:103840003B694FF440737B611223BB610023FB6132
:1038500003233B6204237B6207F1140319460B48E0
:1038600002F01AFF084BDB69074A43F40013D361E7
:10387000054BDB6903F40013FB60FB6800BF2837CE
:10388000BD4680BD005400400010024000040048C6
:1038900080B485B000AF78607B681B680D4A9342A6
:1038A00011D14FF40043FB60FB6893FAA3F3BB60B4
:1038B000BB68B3FA83F3DBB21A46074B13449B0091
:1038C0001A460123136000BF1437BD465DF8047B20
:1038D000704700BF002800400081901080B58EB076
:1038E00000AF786007F1240300221A605A609A60E2
:1038F000DA601A617B681B68504A93420CD1504BC6
:103900009B694F4A43F4006393614D4B9B6903F4F9
:1039100000633B623B6A8DE07B681B68B3F1804FBC
:1039200031D1474BDB69464A43F00103D361444B35
:10393000DB6903F00103FB61FB69414B5B69404AB2
:1039400043F4003353613E4B5B6903F40033BB61C6
:10395000BB6901237B620223BB620023FB6200235D
:103960003B6301237B6307F1240319464FF090402A
:1039700002F092FE002203211C2002F02CFC1C20ED
:1039800002F045FC56E07B681B682E4A934214D136
:103990002B4BDB692A4A43F00203D361284BDB69D6
:1039A00003F002037B617B69002200211D2002F0ED
:1039B00012FC1D2002F02BFC3CE07B681B68224AB5
:1039C000934214D11E4BDB691D4A43F00403D361BB
:1039D0001B4BDB6903F004033B613B6900220021C0
:1039E0001E2002F0F8FB1E2002F011FC22E07B6892
:1039F0001B68164A93420CD1114B9B69104A43F441
:103A0000005393610E4B9B6903F40053FB60FB680A
:103A100010E07B681B680E4A93420BD1084B9B69F0
:103A2000074A43F480339361054B9B6903F4803369
:103A3000BB60BB6800BF3837BD4680BD002C01406D
:103A40000010024000040040000800400034014023
:103A50000040014080B58CB000AF786007F11C03D6
:103A600000221A605A609A60DA601A617B681B68EB
:103A70004C4A93421ED14C4B5B694B4A43F4003392
:103A80005361494B5B6903F40033BB61BB694FF47D
:103A9000D853FB6102233B6200237B620023BB629D
:103AA0000623FB6207F11C0319464FF0904002F019
:103AB000F3FD72E07B681B683C4A93423AD13A4B73
:103AC0005B69394A43F400335361374B5B6903F454
:103AD00000337B617B69344B5B69334A43F4802359
:103AE0005361314B5B6903F480233B613B694FF4C5
:103AF0000043FB6102233B6200237B620023BB6225
:103B00000223FB6207F11C0319464FF0904002F0BC
:103B1000C3FD0823FB6102233B6200237B62002379
:103B2000BB620423FB6207F11C031946204802F024
:103B3000B3FD32E07B681B681E4A93422DD11A4BBD
:103B40005B69194A43F480235361174B5B6903F4A3
:103B50008023FB60FB684FF48043FB6102233B62E0
:103B600000237B620023BB620123FB6207F11C037D
:103B700019460F4802F090FD4FF40043FB61022309
:103B80003B6200237B620023BB620223FB6207F1DE
:103B90001C031946064802F07FFD00BF3037BD46C2
:103BA00080BD00BF002C01400010024000340140E5
:103BB000000400480040014080B58CB000AF786040
:103BC00007F11C0300221A605A609A60DA601A61D9
:103BD0007B681B68674A934228D1674B9B69664A9A
:103BE00043F480439361644B9B6903F48043BB615E
:103BF000BB69614B5B69604A43F4802353615E4B50
:103C00005B6903F480237B617B69C023FB61022332
:103C10003B6200237B620323BB620723FB6207F145
:103C20001C031946554802F037FD9FE07B681B686E
:103C3000534A934240F09A804F4BDB694E4A43F41B
:103C40000033D3614C4BDB6903F400333B613B69C8
:103C5000494B5B69484A43F400335361464B5B6907
:103C600003F40033FB60FB68434B5B69424A43F457
:103C700080235361404B5B6903F48023BB60BB68C6
:103C80000423FB6102233B6200237B620323BB62AC
:103C90000723FB6207F11C0319464FF0904002F026
:103CA000FBFC1023FB6102233B6200237B620323A6
:103CB000BB620723FB6207F11C0319462F4802F081
:103CC000EBFC304B304A1A602E4B00225A602D4BD1
:103CD00000229A602B4B8022DA602A4B00221A6164
:103CE000284B00225A61274B00229A61254B4FF442
:103CF0000052DA61234802F0A4FA0346002B01D0F7
:103D0000FFF73AFA7B681F4A5A671E4A7B6853627C
:103D10001E4B1F4A1A601D4B10225A601B4B00227B
:103D20009A601A4B8022DA60184B00221A61174BF6
:103D300000225A61154B00229A61144B0022DA616D
:103D4000124802F07EFA0346002B01D0FFF714FA66
:103D50007B680E4A1A670D4A7B6853620022012174
:103D6000262002F038FA262002F051FA00BF303740
:103D7000BD4680BD003801400010024000040048EC
:103D8000004400407C0600206C000240C006002079
:103D90008000024080B400AFFEE780B400AFFEE7D1
:103DA00080B400AFFEE780B400AFFEE780B400AFA0
:103DB000FEE780B400AF00BFBD465DF8047B7047EE
:103DC00080B400AF00BFBD465DF8047B704780B48F
:103DD00000AF00BFBD465DF8047B704780B500AF03
:103DE00000F0C0F900BF80BD80B400AF00BFBD4689
:103DF0005DF8047B704780B500AF022002F0F6FD4D
:103E000000BF80BD80B500AF024802F037FB00BFA5
:103E100080BD00BF7C06002080B500AF024802F0E4
:103E20002DFB00BF80BD00BFC006002080B500AFE5
:103E3000034800F0B3FF034800F0B0FF00BF80BDAF
:103E4000FC0100204C02002080B500AF202002F0D1
:103E5000CDFD00BF80BD000080B500AF024805F079
:103E60000FFF00BF80BD00BFF003002080B500AF92
:103E7000024805F005FF00BF80BD00BF3C040020E4
:103E800080B500AF024805F0FBFE00BF80BD00BF5B
:103E90008804002080B500AF024807F04FFB00BF48
:103EA00080BD00BFF405002080B500AF4FF4005086
:103EB00002F09CFD4FF4804002F098FD00BF80BDF1
:103EC00080B500AF024802F0D9FA00BF80BD00BF44
:103ED000EC02002080B400AF01231846BD465DF817
:103EE000047B704780B582B000AF7860396009F01C
:103EF000A9FA034616221A604FF0FF331846083716
:103F0000BD4680BD80B582B000AF78604FF0FF3114
:103F10007868FFF7E7FFFEE780B586B000AFF8608E
:103F2000B9607A6000237B610AE0AFF3008001464C
:103F3000BB685A1CBA60CAB21A707B6901337B61D4
:103F40007A697B689A42F0DB7B6818461837BD4671
:103F500080BD80B586B000AFF860B9607A6000239C
:103F60007B6109E0BB685A1CBA601B781846AFF346
:103F700000807B6901337B617A697B689A42F1DB5F
:103F80007B6818461837BD4680BD80B483B000AF4B
:103F900078604FF0FF3318460C37BD465DF8047B60
:103FA000704780B483B000AF786039603B684FF4ED
:103FB00000525A60002318460C37BD465DF8047B5A
:103FC000704780B483B000AF7860012318460C3787
:103FD000BD465DF8047B704780B485B000AFF860E3
:103FE000B9607A60002318461437BD465DF8047B3B
:103FF0007047000080B586B000AF7860144A154B5A
:10400000D31A7B617B693B61134B1B68002B02D188
:10401000114B124A1A60104B1A687B6813443A69B4
:104020009A4207D209F00EFA03460C221A604FF0AA
:10403000FF3309E0084B1B68FB60074B1A687B687D
:104040001344054A1360FB6818461837BD4680BD07
:1040500000A000200004000004090020580A0020ED
:1040600080B400AF064BD3F88830054A43F47003A0
:10407000C2F8883000BFBD465DF8047B704700BFC2
:1040800000ED00E0DFF834D0FFF7EAFF0C480D49FF
:104090000D4A002302E0D458C4500433C4188C42A3
:1040A000F9D30A4A0A4C002301E013600432A24209
:1040B000FBD309F0CDF9FDF7F3F8FEE700A00020EF
:1040C00000000020E00100203CFA0008E001002090
:1040D000580A0020FEE7000080B500AF084B1B68BF
:1040E000074A43F010031360032002F069F80F2021
:1040F00000F008F8FFF75EFA0023184680BD00BF05
:104100000020024080B582B000AF7860124B1A6880
:10411000124B1B7819464FF47A73B3FBF1F3B2FBE1
:10412000F3F3184602F081F80346002B01D0012377
:104130000EE07B680F2B0AD8002279684FF0FF3021
:1041400002F049F8064A7B681360002300E001236F
:1041500018460837BD4680BD0C0000201400002022
:104160001000002080B400AF064B1B781A46064BA7
:104170001B681344044A136000BFBD465DF8047B0E
:10418000704700BF140000200809002080B400AF71
:10419000034B1B681846BD465DF8047B704700BFA3
:1041A0000809002080B584B000AF7860FFF7EEFF0B
:1041B000B8607B68FB60FB68B3F1FF3F05D00A4B3A
:1041C0001B781A46FB681344FB6000BFFFF7DEFF55
:1041D0000246BB68D31AFA689A42F7D800BF00BFFC
:1041E0001037BD4680BD00BF1400002080B483B0EE
:1041F00000AF786000BF0C37BD465DF8047B7047A8
:1042000080B483B000AF786000BF0C37BD465DF866
:10421000047B704780B483B000AF786000BF0C3778
:10422000BD465DF8047B704780B59AB000AF7860FA
:10423000002387F8673000233B660023BB607B6860
:10424000002B01D10123C9E17B681B69002B7B682E
:104250001B6C03F01003002B76D17B681B6C002BCA
:1042600052D17B6800225A647B680022DA647B6842
:1042700000229A647B68002283F83C207868FFF76C
:10428000C3F97B681B689B6803F08053002B3BD10C
:10429000786801F0A9FD034687F867307B681B6CDE
:1042A00003F01003002B2FD197F86730002B2BD190
:1042B0007B681B6C23F4885323F0020343F0020253
:1042C0007B681A647B681B689A687B681B6822F0AD
:1042D00040529A607B681B689A687B681B6842F052
:1042E00080529A60864B1B68864AA2FB03239A0C75
:1042F00013469B0013445B00BB6002E0BB68013BBC
:10430000BB60BB68002BF9D17B681B689B6803F01E
:104310008053002B07D07B681B689B6803F0005319
:10432000B3F1005F10D17B681B6C23F0120343F0E4
:1043300010027B681A647B685B6C43F001027B6847
:104340005A64012387F867307B681B6C03F0100305
:10435000002B40F0368197F86730002B40F0318118
:104360007B681B689B6803F00403002B40F02981E5
:104370007B681B6C23F4817343F002027B681A6430
:104380007B681B68B3F1A04F04D07B681B685E4A52
:10439000934201D15D4B00E05D4BFB657B681B6880
:1043A000B3F1A04F02D1584BFB601AE07B681B6849
:1043B000554A934203D14FF0A043FB6011E07B6864
:1043C0001B68544A934202D1534BFB6009E07B685F
:1043D0001B68514A934202D14E4BFB6001E000231F
:1043E000FB607B681B689B6803F00303012B08D10B
:1043F0007B681B681B6803F00103012B01D10123BB
:1044000000E00023002B1CD1FB68002B10D0FB68C0
:104410009B6803F00303012B07D1FB681B6803F0C3
:104420000103012B01D1012300E00023002B08D15F
:10443000FB6D9B6823F440327B685B681A43FB6D1D
:104440009A607B685B7E5B037A68526B012A02D0BC
:104450004FF4805200E000221A437B68DB681A4365
:104460007B689B6813433A6E13433B667B6893F803
:104470002030012B1BD17B685B7E002B09D17B6830
:104480005B6A013B5A043B6E134343F480333B6643
:104490000DE07B681B6C23F0220343F020027B6855
:1044A0001A647B685B6C43F001027B685A647B682A
:1044B0009B6A012B3AD07B681B68164A934204D052
:1044C0007B681B68144A934228D17B689B6AB3F5CA
:1044D000307F12D07B689B6AB3F5807F0AD07B68FF
:1044E0009B6AB3F5E07F02D07B689B6A18E04FF4CB
:1044F000807315E04FF4307312E04FF4E0730FE077
:104500000C00002083DE1B4300010050000300501C
:104510000007005000040050000500507B689B6AB3
:104520007A68D26A13433A6E13433B667B681B6812
:104530009B6803F00C03002B14D17B681B68DB68BD
:104540007A68126823F4804323F00203D3607B6807
:104550001B7E9A037B6893F830305B0013433A6EFE
:1045600013433B667B681B68DA681E4B13407A680E
:104570001268396E0B43D3607B681B69012B0CD129
:104580007B681B681B6B23F00F017B68DB695A1E7D
:104590007B681B680A431A6307E07B681B681A6B19
:1045A0007B681B6822F00F021A637B6800225A6442
:1045B0007B681B6C23F0030343F001027B681A64E1
:1045C0000AE07B681B6C23F0120343F010027B6847
:1045D0001A64012387F8673097F867301846683700
:1045E000BD4680BD07C0F0FF80B584B000AF7860E5
:1045F0000023FB737B681B689B6803F00403002B9C
:1046000040F0F9807B6893F83C30012B01D1022304
:10461000F4E07B68012283F83C20786801F080FB9D
:104620000346FB73FB7B002B40F0E0807B681B6C38
:1046300023F4706323F0010343F480727B681A64EF
:104640007B681B68B3F1A04F04D07B681B686D4A80
:10465000934206D16C4B9B6803F01F03002B10D0D4
:1046600005E06A4B9B6803F01F03002B09D07B68B1
:104670001B68B3F1A04F04D07B681B68644A934267
:1046800015D17B681B6C23F480127B681A647B68ED
:104690001B68DB6803F00073002B36D07B681B6C53
:1046A00023F4405343F480527B681A642DE07B6806
:1046B0001B6C43F480127B681A647B681B68B3F13F
:1046C000A04F04D07B681B684E4A93420AD14FF03A
:1046D000A043DB6803F00073002B14BF0123002309
:1046E000DBB208E04A4BDB6803F00073002B14BF19
:1046F00001230023DBB2002B07D07B681B6C23F463
:10470000405343F480527B681A647B681B6C03F44B
:104710008053B3F5805F06D17B685B6C23F00602A3
:104720007B685A6402E07B6800225A647B6800223E
:1047300083F83C207B681B681C221A607B681B681E
:10474000B3F1A04F04D07B681B682E4A934206D178
:104750002D4B9B6803F01F03002B3ED005E02B4B35
:104760009B6803F01F03002B37D07B681B68B3F1F5
:10477000A04F04D07B681B68224A934206D1224B8B
:104780009B6803F01F03052B27D005E01F4B9B6898
:1047900003F01F03052B20D07B681B68B3F1A04FEB
:1047A00004D07B681B68174A934206D1164B9B685E
:1047B00003F01F03092B10D005E0144B9B6803F096
:1047C0001F03092B09D07B681B68B3F1A04F04D0ED
:1047D0007B681B680E4A93420FD17B681B689A68FE
:1047E0007B681B6842F004029A6006E07B68002246
:1047F00083F83C2001E00223FB73FB7B1846103753
:10480000BD4680BD0001005000030050000700506D
:104810000004005080B584B000AF78600023FB73C3
:104820007B6893F83C30012B01D1022323E07B68A5
:10483000012283F83C206C21786801F03BFB0346A1
:10484000FB73FB7B002B11D1786801F0CDFA034696
:10485000FB73FB7B002B09D17B681B6C23F4885313
:1048600023F0010343F001027B681A647B68002295
:1048700083F83C20FB7B18461037BD4680BD000006
:1048800080B586B000AF7860396000233B617B68FB
:104890005B69082B02D108237B613AE07B681B68C7
:1048A000B3F1A04F04D07B681B68724A934201D1D8
:1048B000714B00E0714BFB60FB689B6803F01F03CA
:1048C000002B12D17B681B68DB6803F00103012B0E
:1048D0001DD17B681B6C43F020027B681A647B68E7
:1048E000002283F83C200123BFE0FB689B6803F4AF
:1048F0004043002B0BD07B681B6C43F020027B688D
:104900001A647B68002283F83C200123ADE00C236D
:104910007B617B681B68B3F1A04F04D07B681B6888
:10492000544A934206D1544B9B6803F01F03002B5B
:1049300010D005E0514B9B6803F01F03002B09D0FA
:104940007B681B68B3F1A04F04D07B681B684C4A9E
:10495000934204D17B681B68DB683B610FE07B6896
:104960001B68B3F1A04F04D07B681B68414A934297
:1049700002D14FF0A04300E0414BDB683B61FFF701
:1049800005FCB86021E03B68B3F1FF3F1DD03B68F8
:10499000002B07D0FFF7FAFB0246BB68D31A3A6830
:1049A0009A4212D27B681B681A687B691340002BFD
:1049B0000BD17B681B6C43F004027B681A647B6834
:1049C000002283F83C2003234FE07B681B681A68B1
:1049D0007B691340002BD6D07B681B6C43F40072BC
:1049E0007B681A647B681B68DB6803F44063002BF8
:1049F00031D13B6903F40053002B2CD17B681B6839
:104A00001B6803F00803082B25D17B681B689B6893
:104A100003F00403002B12D17B681B6C23F480721B
:104A20007B681A647B681B6C03F48053002B12D1E3
:104A30007B681B6C43F001027B681A640BE07B68A7
:104A40001B6C43F020027B681A647B685B6C43F04C
:104A500001027B685A643B6903F48043002B03D155
:104A60007B681B687A691A60002318461837BD46B0
:104A700080BD00BF0001005000030050000700503F
:104A80000004005080B586B000AFF860B9607A606D
:104A90000023FB75FB681B689B6803F00403002B75
:104AA00040F0F780FB6893F83C30012B01D10223E2
:104AB000F2E0FB68012283F83C20FB681B68B3F13D
:104AC000A04F04D0FB681B68754A934209D1754B0F
:104AD0009B6803F01F03002B0CBF01230023DBB2F4
:104AE00008E0714B9B6803F01F03002B0CBF0123F0
:104AF0000023DBB2002B00F0C580F86801F010F94C
:104B00000346FB75FB7D002B40F0B780FB681B6CF8
:104B100023F4706323F0010343F48072FB681A648A
:104B2000FB681B68B3F1A04F04D0FB681B685C4AAC
:104B3000934206D15B4B9B6803F01F03002B10D000
:104B400005E0594B9B6803F01F03002B09D0FB685D
:104B50001B68B3F1A04F04D0FB681B68534A934213
:104B600015D1FB681B6C23F48012FB681A64FB6888
:104B70001B68DB6803F00073002B36D0FB681B6CEE
:104B800023F4405343F48052FB681A642DE0FB6821
:104B90001B6C43F48012FB681A64FB681B68B3F15A
:104BA000A04F04D0FB681B683D4A93420AD14FF0E6
:104BB000A043DB6803F00073002B14BF0123002324
:104BC000DBB208E0394BDB6803F00073002B14BF45
:104BD00001230023DBB2002B07D0FB681B6C23F4FE
:104BE000405343F48052FB681A64FB681B6C03F467
:104BF0008053B3F5805F06D1FB685B6C23F006023F
:104C0000FB685A6402E0FB6800225A64FB680022D9
:104C100083F83C20FB689B6B254A9A62FB689B6B80
:104C2000244ADA62FB689B6B234A1A63FB681B68A1
:104C30001C221A60FB681B685A68FB681B6842F0FC
:104C400010025A60FB681B68DA68FB681B6842F058
:104C50000102DA60FB68986BFB681B6840331946F9
:104C6000BA687B6801F034FBFB681B689A68FB68D4
:104C70001B6842F004029A600DE0FB68002283F892
:104C80003C2008E00123FB75FB68002283F83C20F0
:104C900001E00223FB75FB7D18461837BD4680BD39
:104CA00000010050000300500007005000040050B5
:104CB000555C0008CF5C0008EB5C000880B584B050
:104CC00000AF78600023FB737B6893F83C30012BC6
:104CD00001D1022350E07B68012283F83C206C2143
:104CE000786801F0E7F80346FB73FB7B002B3ED1AD
:104CF0007B681B68DA687B681B6822F00102DA6057
:104D00007B689B6B93F82130022B0FD17B689B6BE8
:104D1000184601F03CFB0346FB73FB7B002B05D0E0
:104D20007B681B6C43F040027B681A647B681B68DD
:104D30005A687B681B6822F010025A60FB7B002BCC
:104D400005D1786801F050F80346FB7302E07868FB
:104D500001F04AF8FB7B002B09D17B681B6C23F424
:104D6000885323F0010343F001027B681A647B68D7
:104D7000002283F83C20FB7B18461037BD4680BDDF
:104D800080B483B000AF78607B681B681B6C1846EA
:104D90000C37BD465DF8047B7047000080B588B0D5
:104DA00000AF78600023FB610023BB6100237B61BF
:104DB0007B681B681B683B617B681B685B68FB60EA
:104DC0003B6903F00403002B04D0FB6803F00403E9
:104DD000002B0BD13B6903F00803002B00F0BC80D3
:104DE000FB6803F00803002B00F0B6807B681B6CA7
:104DF00003F01003002B05D17B681B6C43F4007299
:104E00007B681A647B681B68B3F1A04F04D07B6891
:104E10001B68904A934206D18F4B9B6803F01F0397
:104E2000002B3ED005E08D4B9B6803F01F03002B49
:104E300037D07B681B68B3F1A04F04D07B681B6838
:104E4000844A934206D1844B9B6803F01F03052BD1
:104E500027D005E0814B9B6803F01F03052B20D072
:104E60007B681B68B3F1A04F04D07B681B68794A4C
:104E7000934206D1784B9B6803F01F03092B10D097
:104E800005E0764B9B6803F01F03092B09D07B6874
:104E90001B68B3F1A04F04D07B681B68704A934233
:104EA00004D17B681B68DB68BB610FE07B681B6813
:104EB000B3F1A04F04D07B681B68664A934202D1CD
:104EC0004FF0A04300E0664BDB68BB617B681B686A
:104ED000DB6803F44063002B37D1BB6903F4005354
:104EE000002B32D13B6903F00803002B2DD07B68E7
:104EF0001B689B6803F00403002B1AD17B681B68B6
:104F00005A687B681B6822F00C025A607B681B6C35
:104F100023F480727B681A647B681B6C03F48053F3
:104F2000002B12D17B681B6C43F001027B681A6472
:104F30000BE07B681B6C43F010027B681A647B6893
:104F40005B6C43F001027B685A647868FEF7FEF8F8
:104F50007B681B680C221A603B6903F02003002B5E
:104F600004D0FB6803F02003002B0BD13B6903F056
:104F70004003002B00F03881FB6803F04003002B56
:104F800000F032817B681B6C43F400527B681A642A
:104F90007B681B68B3F1A04F04D07B681B682D4A67
:104FA000934206D12C4B9B6803F01F03002B3ED08D
:104FB00005E02A4B9B6803F01F03002B37D07B686A
:104FC0001B68B3F1A04F04D07B681B68214A934251
:104FD00006D1214B9B6803F01F03052B27D005E06A
:104FE0001E4B9B6803F01F03052B20D07B681B68BA
:104FF000B3F1A04F04D07B681B68164A934206D1D8
:10500000154B9B6803F01F03092B10D005E0134BD1
:105010009B6803F01F03092B09D07B681B68B3F161
:10502000A04F04D07B681B680D4A934204D17B6873
:105030001B68DB68BB6118E07B681B68B3F1A04F9D
:1050400004D07B681B68034A93420BD14FF0A04306
:1050500009E000BF000100500003005000070050AD
:1050600000040050924BDB68BB617B681B68DB6C03
:1050700003F0C003002B40F0B080BB6903F0007365
:10508000002B0DD07B681B68DB6803F44063002BAA
:1050900040F0A380BB6903F40053002B40F09D80D7
:1050A0003B6903F04003002B00F097807B681B688E
:1050B000B3F1A04F04D07B681B687E4A934206D1AF
:1050C0007D4B9B6803F01F03002B3ED005E07B4B1C
:1050D0009B6803F01F03002B37D07B681B68B3F17C
:1050E000A04F04D07B681B68724A934206D1724B72
:1050F0009B6803F01F03062B27D005E06F4B9B68CE
:1051000003F01F03062B20D07B681B68B3F1A04F70
:1051100004D07B681B68674A934206D1664B9B6844
:1051200003F01F03072B10D005E0644B9B6803F0CE
:105130001F03072B09D07B681B68B3F1A04F04D075
:105140007B681B685A4A934204D17B681B68DB6802
:105150007B610FE07B681B68B3F1A04F04D07B68D4
:105160001B68544A934202D14FF0A04300E0504BD9
:10517000DB687B617B6903F40013002B2DD17B6816
:105180001B689B6803F00803002B1AD17B681B681F
:105190005A687B681B6822F060025A607B681B6C4F
:1051A00023F480527B681A647B681B6C03F4807361
:1051B000002B12D17B681B6C43F001027B681A64E0
:1051C0000BE07B681B6C43F010027B681A647B6801
:1051D0005B6C43F001027B685A64786800F036F932
:1051E0007B681B6860221A603B6903F08003002B18
:1051F00011D0FB6803F08003002B0CD07B681B6C84
:1052000043F480327B681A647868FEF7F9FF7B68A4
:105210001B6880221A603B6903F48073002B12D054
:10522000FB6803F48073002B0DD07B681B6C43F488
:1052300000327B681A64786800F01CF97B681B6890
:105240004FF480721A603B6903F40073002B12D094
:10525000FB6803F40073002B0DD07B681B6C43F4D8
:1052600080227B681A64786800F00EF97B681B68FE
:105270004FF400721A603B6903F01003002B4FD00B
:10528000FB6803F01003002B4AD07B685B6B012B9B
:1052900002D10123FB612DE07B681B68B3F1A04FB5
:1052A00004D07B681B68034A934209D1024B08E093
:1052B000000400500001005000030050000700509F
:1052C000284BBB60BB689B6803F01F03002B09D110
:1052D0007B681B68DB6803F00103012B0AD1012303
:1052E000FB6107E0BB689B6803F44043002B01D0DF
:1052F0000123FB61FB69012B0ED17B681B6C43F41E
:1053000080627B681A647B685B6C43F002027B6896
:105310005A647868FEF77EFF7B681B6810221A606B
:105320003B6903F48063002B18D0FB6803F48063AF
:10533000002B13D07B681B6C43F480427B681A649B
:105340007B685B6C43F008027B685A647B681B686F
:105350004FF480621A60786800F082F800BF20374E
:10536000BD4680BD0007005080B584B000AF7860B6
:1053700039600023FB737B6893F83C30012B01D12B
:1053800002235FE07B68012283F83C20786800F00C
:105390002BFD0346FB73FB7B002B4ED17B68012268
:1053A0001A647B681B689A687B681B6822F08042DD
:1053B0009A603B68012B07D17B681B689A687B6801
:1053C0001B6842F080429A607B681B689A687B6821
:1053D0001B6842F000429A60FEF7D8FEB8601CE0FD
:1053E000FEF7D4FE0246BB68D31A0A2B15D97B6898
:1053F0001B689B6803F00043B3F1004F0DD17B683D
:105400001B6C23F0120343F010027B681A647B6864
:10541000002283F83C20012314E07B681B689B6812
:1054200003F00043B3F1004FDAD07B681B6C23F02C
:10543000030343F001027B681A647B68002283F84F
:105440003C20FB7B18461037BD4680BD80B483B03E
:1054500000AF786000BF0C37BD465DF8047B704735
:1054600080B483B000AF786000BF0C37BD465DF8F4
:10547000047B704780B483B000AF786000BF0C3706
:10548000BD465DF8047B704780B483B000AF7860A0
:1054900000BF0C37BD465DF8047B704780B49BB0FD
:1054A00000AF78603960002387F867300023BB6065
:1054B0007B6893F83C30012B01D10223C8E27B6862
:1054C000012283F83C207B681B689B6803F004037F
:1054D000002B40F0AC823B685B68042B1CD87B68D7
:1054E0001B68196B3B685A6813465B0013445B00EA
:1054F0001A461F239340DB4319403B6818683B68FA
:105500005A6813465B0013445B0000FA03F27B68A1
:105510001B680A431A6363E03B685B68092B1ED86B
:105520007B681B68596B3B685A6813465B001344E1
:105530005B001E3B1F2202FA03F3DB4319403B686A
:1055400018683B685A6813465B0013445B001E3BB7
:1055500000FA03F27B681B680A435A6340E03B6829
:105560005B680E2B1ED87B681B68996B3B685A687A
:1055700013465B0013445B003C3B1F2202FA03F31B
:10558000DB4319403B6818683B685A6813465B0068
:1055900013445B003C3B00FA03F27B681B680A4340
:1055A0009A631DE07B681B68D96B3B685A68134699
:1055B0005B0013445B005A3B1F2202FA03F3DB43F8
:1055C00019403B6818683B685A6813465B001344EF
:1055D0005B005A3B00FA03F27B681B680A43DA63FC
:1055E0007B681B689B6803F00C03002B40F0E58090
:1055F0003B681B68092B1CD97B681B6899693B6851
:105600001A6813465B0013441E3B072202FA03F399
:10561000DB4319403B6898683B681A6813465B0097
:1056200013441E3B00FA03F27B681B680A439A612D
:1056300019E07B681B6859693B681A6813465B0070
:105640001344072202FA03F3DB4319403B689868CE
:105650003B681A6813465B00134400FA03F27B6848
:105660001B680A435A613B685A697B681B68DB68A0
:10567000DB0803F003035B0002FA03F33B663B68BD
:105680001B69013B032B4FD801A252F823F000BF46
:10569000A1560008C3560008E55600080757000841
:1056A0007B681B681A6E994B13403A681268910622
:1056B0003A6E0A431A437B681B6842F000421A663E
:1056C0007BE07B681B685A6E904B13403A68126807
:1056D00091063A6E0A431A437B681B6842F0004207
:1056E0005A666AE07B681B689A6E884B13403A687A
:1056F000126891063A6E0A431A437B681B6842F0AF
:1057000000429A6659E07B681B68DA6E7F4B134053
:105710003A68126891063A6E0A431A437B681B681E
:1057200042F00042DA6648E07B681B681B6E03F0BB
:10573000F8423B681B689B069A4207D17B681B684E
:105740001A6E7B681B6822F000421A667B681B6831
:105750005B6E03F0F8423B681B689B069A4207D1D8
:105760007B681B685A6E7B681B6822F000425A6691
:105770007B681B689B6E03F0F8423B681B689B06C6
:105780009A4207D17B681B689A6E7B681B6822F07F
:1057900000429A667B681B68DB6E03F0F8423B6848
:1057A0001B689B069A4207D17B681B68DA6E7B6890
:1057B0001B6822F00042DA6600BF7B681B689B68AA
:1057C00003F00303012B08D17B681B681B6803F0FF
:1057D0000103012B01D1012300E00023002B40F045
:1057E00031813B68DB68012B0FD07B681B68D3F8E5
:1057F000B0103B681B68012202FA03F3DA437B68AE
:105800001B680A40C3F8B02049E07B681B68D3F8E6
:10581000B0103B681B6801229A407B681B680A43F2
:10582000C3F8B0203B681B68092B1CD97B681B6838
:1058300099693B681A6813465B0013441B3B0722B7
:1058400002FA03F3DB4319403B6898683B681A6827
:1058500013465B0013441B3B00FA03F27B681B6892
:105860000A439A611BE07B681B6859693B681B68A7
:105870005A1C13465B001344072202FA03F3DB436E
:1058800019403B6898683B681B685A1C13465B00CC
:10589000134400FA03F27B681B680A435A617B6871
:1058A0001B68B3F1A04F04D07B681B68184A934271
:1058B00001D1184B00E0184BFB653B681B68102BAF
:1058C00005D1FB6D9B6803F40003002B15D03B68EA
:1058D0001B68112B05D1FB6D9B6803F08073002BB7
:1058E0000BD03B681B68122B40F0AC80FB6D9B68B3
:1058F00003F48003002B40F0A5807B681B68B3F1A4
:10590000A04F0BD1024BFB6023E000BF00F0FF83F0
:105910000001005000030050000700507B681B6826
:105920004E4A934203D14FF0A043FB6011E07B68E5
:105930001B684B4A934202D14A4BFB6009E07B68EB
:105940001B68484A934202D1454BFB6001E00023AB
:10595000FB607B681B689B6803F00303012B08D185
:105960007B681B681B6803F00103012B01D1012335
:1059700000E00023002B50D1FB68002B10D0FB6807
:105980009B6803F00303012B07D1FB681B6803F03E
:105990000103012B01D1012300E00023002B3CD1A6
:1059A0003B681B68102B1DD17B681B68B3F1A04FAF
:1059B00018D1FB6D9B6843F40002FB6D9A602A4B83
:1059C0001B682A4AA2FB03239A0C13469B0013442C
:1059D0005B00BB6002E0BB68013BBB60BB68002BA7
:1059E000F9D12EE03B681B68112B0BD17B681B683B
:1059F000B3F1A04F06D1FB6D9B6843F08072FB6D45
:105A00009A601EE03B681B68122B1AD1FB6D9B68E5
:105A100043F48002FB6D9A6013E07B681B6C43F0DB
:105A200020027B681A64012387F867300AE07B68EC
:105A30001B6C43F020027B681A64012387F86730EF
:105A400000E000BF7B68002283F83C2097F86730B5
:105A500018466C37BD465DF8047B70470001005066
:105A600000040050000500500C00002083DE1B43A2
:105A700080B499B000AF78603960002387F85F3058
:105A80007B681B68B3F1A04F02D16D4BBB601AE07D
:105A90007B681B686A4A934203D14FF0A043BB6006
:105AA00011E07B681B68674A934202D1664BBB607A
:105AB00009E07B681B68644A934202D1614BBB607A
:105AC00001E00023BB60BB68002B01D10123B0E0E3
:105AD0007B6893F83C30012B01D10223A9E07B685D
